:0300030002026F87
:10026F00C0E0C0F0C083C082C0D075D000C000C055
:0D027F0001C002C003C004C005C006C007D6
:10028C00E4852A2EF52DF52CF52BC28CAF8C8F82A4
:10029C00F583E582AD8AF583EDF582758C3C758A24
:1002AC00AF752A00D28CE47F507EC3FDFCAB2EAA26
:1002BC002DA92CA82B120090A804A905AA06AB07FF
:1002CC00AE83AF82E4FCFDEB2FF52EEA3EF52DED6F
:0702DC0039F52CEC38F52B7D
:1002E300D007D006D005D004D003D002D001D0006F
:0B02F300D0D0D082D083D0F0D0E03219
:03000B000204BD2F
:0904BD00758C3C758AAF052A32EA
:1003E20075890143B80143881143A883758C3C7514
:1003F2008AAF1203427D017F011204111203B3126C
:04040200046680F814
:1003B300E4FFFEFDFCAB2EAA2DA92CA82BC3120132
:1003C300AD6015A82B7F007E347DE27C3012011BCB
:0E03D3008F328E318D308C2F85312885322966
:0103E10022F9
:1001BE00750853750970750A65750B65750C647550
:1001CE000D20AE28AF29E4FCFD7BA07A867901F8DC
:1001DE001202FEAC00AD01AE02AF03E47B107A2733
:1001EE00F9F81202FEEF2430F50EAE28AF297C2767
:1001FE007D1012003B7E037FE8CFCDCFCECCCE124A
:10020E00003BEF2430F50FAE28AF297C037DE812BA
:10021E00003B7E007F64CFCDCFCECCCE12003BEF25
:10022E002430F51075112EAE28AF297C007D641296
:10023E00003B7E007F0ACFCDCFCECCCE12003BEF5F
:10024E002430F512AE28AF297C007D0A12003BED5A
:10025E002430F51375146B75156D75162F7517689B
:01026E00226D
:10042800E4FDFCC3ED9FEC9E5015E4FBFA0BBB000A
:0F043800010AEB643C4A70F50DBD00010C80E435
:010447002292
:0B0406007F057E00120428E4FD7F3813
:100411008F36ED6003120448853690C2B0C2B1D266
:07042100B7000000C2B72282
:10049D008F36120448853690D2B0C2B1D2B7000063
:0404AD0000C2B722B0
:100448007590FFD2B7C2B0D2B1000000E59030E796
:0E0458000AC2B70000D2B7000080F1C2B7227E
:10034200E4F5907F0FFE12040A1204061204067FDF
:10035200057E001204287D017F381204117D017F81
:10036200081204117D017F011204117D017F061222
:0903720004117D017F0C0204114D
:100482008B3553050153070FED60034307404307C4
:0B04920080E4FD120411AF3502049D50
:0A037B008F2F8D308B318A328933C9
:10038500E4F534533001532F0FE52FC39410501D5E
:10039500AB31AA32A93385348275830012000EFB76
:0D03A500AD30AF2F1204820534052F80DC2F
:0103B2002228
:100466001201BE7B007A007908E4FDFF12037B7B54
:0C047600007A0079187D01E4FF02037B8E
:030000000204B146
:0C04B100787FE4F6D8FD7581360203E286
:10000E00BB010CE58229F582E5833AF583E02250A7
:10001E0006E92582F8E622BBFE06E92582F8E222F1
:0D002E00E58229F582E5833AF583E493220B
:10003B00BC000BBE0029EF8DF084FFADF022E4CCA9
:10004B00F875F008EF2FFFEE33FEEC33FCEE9DEC72
:10005B00984005FCEE9DFE0FD5F0E9E4CEFD22EDB8
:10006B00F8F5F0EE8420D21CFEADF075F008EF2F02
:10007B00FFED33FD4007985006D5F0F222C398FDF3
:05008B000FD5F0EA2290
:10009000E88FF0A4CC8BF0A42CFCE98EF0A42CFC0F
:1000A0008AF0EDA42CFCEA8EF0A4CDA8F08BF0A48D
:1000B0002DCC3825F0FDE98FF0A42CCD35F0FCEBEC
:1000C0008EF0A4FEA9F0EB8FF0A4CFC5F02ECD39B1
:0F00D000FEE43CFCEAA42DCE35F0FDE43CFC221E
:1000DF0075F008758200EF2FFFEE33FECD33CDCCD8
:1000EF0033CCC58233C5829BED9AEC99E58298405B
:1000FF000CF582EE9BFEED9AFDEC99FC0FD5F0D638
:10010F00E4CEFBE4CDFAE4CCF9A88222B800C1B961
:10011F000059BA002DEC8BF084CFCECDFCE5F0CB9F
:10012F00F97818EF2FFFEE33FEED33FDEC33FCEBD8
:10013F0033FB10D703994004EB99FB0FD8E5E4F993
:10014F00FA227818EF2FFFEE33FEED33FDEC33FC80
:10015F00C933C910D7059BE99A4007EC9BFCE99A74
:10016F00F90FD8E0E4C9FAE4CCFB2275F010EF2FB9
:10017F00FFEE33FEED33FDCC33CCC833C810D707B9
:10018F009BEC9AE899400AED9BFDEC9AFCE899F8F4
:0E019F000FD5F0DAE4CDFBE4CCFAE4C8F92287
:1002FE00C2D5E830E70FB2D5E4C39BFBE49AFAE42B
:10030E0099F9E498F8EC30E717B2D51203341201DC
:10031E001BE4C39BFBE49AFAE499F9E498F8800392
:10032E0012011B30D50DE4C39FFFE49EFEE49DFD3C
:04033E00E49CFC221D
:1001AD00EB9FF5F0EA9E42F0E99D42F0E89C45F0A8
:0101BD00221F
:00000001FF
