:10002E000106011501260137014A015D01710188A2
:10003E00019F01B801D201EE0002040507090B0170
:10004E00020408102040C0F9A4B0999282F8809062
:10005E008883C6A1868EFF00010002000300050002
:10006E0008000A000E00110014001E0028003200C5
:10007E003C00460050005A00640078008C00A0003E
:10008E00B400C8012C019001F4025802BC032003F5
:10009E008403E81702170318031902150316031732
:1000AE000317031703180319021603170318021870
:1000BE00031703150218031703180210031503166E
:1000CE00021503160317021703180319021A031B4E
:1000DE00031F031F03170318031902160317031830
:1000EE0003170318031F031F021603170318031722
:1000FE00031803200320021F031B031F6620032186
:10010E000320031F031B031F661F031B0319031981
:10011E000315031A661A031903150315031703169D
:10012E006617041804180319031F031B031F662008
:10013E0003210320031F031B031F661F031B031949
:10014E0003190315031A661A03190319031F031B58
:10015E00031F001A031A031A031B031B031A0319A6
:10016E0003190217031517150316031703180317A0
:10017E0004180E18031704180E1866170318031721
:10018E00031803200320021F031B031F66200321F5
:10019E000320031F031B031F661F041B0E1B0319E3
:1001AE0003190315031A661A03190315031503170A
:1001BE0003166617041804180319031F031B031FE5
:1001CE00662003210320031F031B031F661F031B4F
:1001DE00031903190315031A661A03190319031FCA
:1001EE00031B031F00180218031A03190D1503151C
:1001FE0002186616021702150000000F01150216EE
:10020E0002176618031702150216011502100215C1
:10021E00000F011502160217021703180319021513
:10022E000218661703190216031703160017011991
:10023E00021B021B701A031A01190219031A031B5F
:10024E00021A0D190317001866180319021A02195B
:10025E000C180D170316011102110310030F0C10C9
:10026E000215001F011A01186619031A011B021B41
:10027E00031B031B0C1A0D190317001F011A01187B
:10028E006619031A011002100310031A0C180D1729
:10029E000316000F01150216021770180317021528
:1002AE000315031666160316021603150310021025
:1002BE00011101116610030F0C1A02190216031612
:1002CE000318661803180217031603190000001707
:1002DE000316031701160317031603150110031552
:1002EE00031602160D1703160315031003100E1531
:1002FE00040F011703160317011603170316031530
:10030E0001100315031602160D170316031503101D
:10031E000315031601170316031701160317031609
:10032E00031501100315031602160D1703160315F8
:10033E00031003100E15040F0117031903190119E9
:10034E00031A0319031701160316031602160D17C7
:10035E0003160315031003100D1500190319031AC4
:10036E00031F031B031B031A03170D160316031695
:10037E000D17011703170319031A021A0210031798
:10038E000D16031601170319031903170319021F7C
:10039E00021B031A031A0E1B0417021A031A031A5E
:1003AE000E1B041A03190317031603170D16031752
:1003BE00031901190319031A031F031B031B031A45
:1003CE0003170D1603160316031701170317031948
:1003DE00031A021A021003170D160316011703193A
:1003EE00031903170319031F021B031A031A0E1B0B
:1003FE000417021A031A031A0E1B0417161A031AED
:10040E00031A0E1B041A031903170316030F021007
:05041E000315000000C1
:0B0E5E0002100000C181C180010800EB
:100E0000C2A6750AFF750CFF850A8D850C8B438978
:0C0E100011D2A9C2ABC28CC28ED2AF229C
:03000B00020E6A78
:090E6A00B2A685098C850B8A32C1
:080423008B228A2389248D2518
:10042B00E4F542E5422525FFD3940B401A74F42FD3
:10043B0025E0242EF582E43400F58374019325E046
:10044B00FFE49333FE8013EF25E0242EF582E43492
:10045B0000F583E493FE740193FFE54225E0242A23
:10046B00F8A60608A607E527640145267018E5429D
:10047B0025E0242AF8C000E6FE08E67802CEC31376
:10048B00CE13D8F9801EE52764034526701CE54280
:10049B0025E0242AF8C000E6FE08E67802C333CE36
:1004AB0033CED8F9D000A60608F60542E542640C17
:1004BB00600302042EE4F54FF550AB22AA23A924C6
:1004CB00855082854F83120791600D74022550F57C
:1004DB0050E4354FF54F80E2E4F543F544AB22AAE7
:1004EB0023A924854482854383120791F551E54462
:1004FB002401FFE435438F82F583120791F552AC4B
:10050B0028AD297E2E7FE01207BE8E478F48E54827
:10051B007802CEC313CE13D8F9F54E8E4D7802C3A5
:10052B0033CE33CED8F9FF7C007D051207BEC3E571
:10053B004E9FF54EE54D9EF54DC28CD28EC3E544D4
:10054B009550E543954F4003020776E55175F00A48
:10055B008485F053E55175F00A8475F00A8485F0B3
:10056B0055E55175F06484F554E553C31304855573
:10057B00F0A42402F558FF74FE7EFFA8070880053F
:10058B00C333CE33CED8F9120E42755902E55390D0
:10059B00004593255425E0242AF8E6FE08E6FFE5FE
:1005AB0053604BE555B4010BEF7802CEC313CE135A
:1005BB00D8F9FFE555B4030BEF7802C333CE33CE36
:1005CB00D8F9FFAB07AA06E4F9F87F507EC3FDFC10
:1005DB00120B54E47B0AFAF9F8120813C3E49FFFD9
:1005EB00E49EF5098F0BF58CE50B2406F58AE55295
:1005FB0075F00A84E5F090004D93FBE55275F00A17
:10060B008475F00A84AAF0E55275F06484F556EB14
:10061B00FD7C00AE47AF481207BE8E458F46E556B0
:10062B00B40111E545C313FEE546132546F546EE29
:10063B003545F545EA64016040EA7030EBD394042C
:10064B00500FC3E546954EF54AE545954DF5498066
:10065B002EE546AE457802C333CE33CED8F9FF7CB8
:10066B00007D051207BE8E498F4A8013E545C313E3
:10067B00F549E54613F54A800685454985464AE521
:10068B00537004F549F54AC3E546954AF54CE545E3
:10069B009549F54BE553604AD28C854A42E542D3E6
:1006AB009400403EE5590475F0058485F059E558F2
:1006BB00255924FEFF74FE7EFFA807088005C3336F
:1006CB00CE33CED8F9120E42208F0B120C968F57C9
:1006DB00E55760F48050850A8D850C8BC28F1542CF
:1006EB0080BBE54C454B6054C28CC2A6854C42E5A1
:1006FB0042D394004046E5590475F0058485F059C2
:10070B00E558255924FEFF74FE7EFFA807088005D7
:10071B00C333CE33CED8F9120E42208F13120C9660
:10072B008F57E55760F4120930C28CC28EC2A622D5
:10073B00850A8D850C8BC28F154280B374022544BC
:10074B00F544E43543F543AB22AA23A9248544821F
:10075B00F583120791F551E5442401FFE435438FEE
:10076B0082F583120791F552020548C2A6E50804EB
:10077B0075F0038485F0087F017E00120E477F2CF5
:05078B007E01120DC00B
:010790002246
:100DC000E4FDFCC3ED9FEC9E5015E4FBFA0BBB0069
:0F0DD000010AEB64784A70F50DBD00010C80E458
:010DDF0022F1
:08000300EF90005493F5B022C8
:020D56008F5BB1
:100D5800E4F9E9C3955B5018B202300204AF0D8084
:100D6800027F101200037F647E00120DC00980E22A
:050D7800AF0D020003B5
:100C9600E4F9E5A05432F55AB432037F00227F0A04
:100CA6007E00120DC0E5A05432B55A037F0022E53E
:100CB6005A20E103430101E55A20E403430102E51A
:090CC6005A20E503430104AF01CB
:010CCF002202
:100E3200E4F5C875CBFC75CDFCD2ADD2CAD2AF22D7
:100E1C00EF25E02465F582E43400F583E493F514C2
:060E2C00740193F515228C
:050E4200F4FFEEF4FED8
:090E4700EFF4F590EEF4F58022C1
:100CD000E4F50DF50EF50FF512751309F590F58095
:100CE00075A0FFF5B07FF47E01120DC07590FF7501
:100CF00080FF75A0FF75B0FFAF13120E1CAF0D0281
:020D00000003EE
:100D7D0074017E00A811088005C333CE33CED8F997
:100D8D00FF120E47E5112401FF751000EF540FF50A
:020D9D00112221
:100D9F00E47E80A811088005CEC313CE13D8F9FFC7
:100DAF00120E47E5112401FF751000EF540FF511D6
:010DBF002211
:100B980030011274017E00A811088005C333CE33DA
:100BA800CED8F9800FE47E80A811088005CEC31343
:100BB800CE13D8F9FF120E47E511640F45107002E5
:100BC800B201E5112401FF751000EF540FF5112251
:100C180030011274017E00A811088005C333CE3359
:100C2800CED8F9800FE47E80A811088005CEC313C2
:100C3800CE13D8F9120E42E511640F45107002B2B6
:0F0C480001E5112401FF751000EF540FF5112283
:100A4E0030012830001274FE7EFFA811088005C305
:100A5E0033CE33CED8F9802774FF7E7FA81108805D
:100A6E0006CEA2E713CE13D8F8802730001474FFF9
:100A7E007E7FA811088006CEA2E713CE13D8F8FF0A
:100A8E00801574FE7EFFA811088005C333CE33CEC9
:100A9E00D8F9F4FFEEF4FE120E47E511640F45107F
:100AAE007007B201300102B200E5112401FF75108A
:070ABE0000EF540FF51122B7
:100BD800300112740F7E00A811088005C333CE338C
:100BE800CED8F9800FE47EF0A811088005CEC31393
:100BF800CE13D8F9FF120E47E511640F45107002A5
:100C0800B201E5112401FF751000EF540FF5112210
:100C5700300112740F7E00A811088005C333CE330C
:100C6700CED8F9800FE47EF0A811088005CEC31313
:100C7700CE13D8F9120E42E511640F45107002B277
:0F0C870001E5112401FF751000EF540FF5112244
:100B0D00300112743F7E00A811088005C333CE3327
:100B1D00CED8F9800FE47EFCA811088005CEC31352
:100B2D00CE13D8F9FF120E47E51164094510700276
:100B3D00B201E5112401FFE43510FE7C007D0A129F
:070B4D0007BE8C108D112280
:0E0E50000511E51170020510FFAE10020E47ED
:100AC500E50D7003020D7DE50DB40103020D9FE5F3
:100AD5000DB40203020B98E50DB40303020C18E5EF
:100AE5000DB40403020A4EE50DB40503020BD8E567
:100AF5000DB40603020C57E50DB40703020B0DE513
:080B05000DB40803120E50228A
:03002B00020D02C1
:100D0200C0E0C0F0C0D075D018C2CF050FE50F709B
:100D120002050EC39515E50E95144009750E007572
:0C0D22000F00120AC5D0D0D0F0D0E03293
:100930008F5AE55A30E023D201E4F510F511D200C8
:10094000E50D0475F00A8485F00DAF0D120003E586
:100950000DB40904C2CA8002D2CAE55A30E131E5B9
:100960000DB4090DE508240275F0038485F00880B4
:100970001FD3E5139400E5129400400FE5131513FF
:1009800070021512AF13120E1C80057F06120D5651
:10099000E55A30E22CE50DB4090BE5080475F003C7
:1009A0008485F00822C3E513941CE5129400500CD2
:1009B0000513E51370020512FF020E1C7F06120DCF
:0209C0005622BD
:100D2E007B007A007900EF14600F146014240270B7
:100D3E00167BFF7A0079A1800E7BFF7A02790980FB
:070D4E00067BFF7A0279DD4C
:010D5500227B
:10000E007FC87E00120DC0AF08120D2E752600752A
:0D001E002703752801752968E4FD020423FD
:100DE000120CD0120E00120E32120C968F21E50D4D
:100DF000B4090312000EE52160EFFF12093080E90B
:030000000209C230
:0C09C200787FE4F6D8FD75815B020A091D
:10079100BB010CE58229F582E5833AF583E022501D
:1007A10006E92582F8E622BBFE06E92582F8E22267
:0D07B100E58229F582E5833AF583E4932281
:1007BE00BC000BBE0029EF8DF084FFADF022E4CC1F
:1007CE00F875F008EF2FFFEE33FEEC33FCEE9DECE8
:1007DE00984005FCEE9DFE0FD5F0E9E4CEFD22ED2E
:1007EE00F8F5F0EE8420D21CFEADF075F008EF2F78
:1007FE00FFED33FD4007985006D5F0F222C398FD69
:05080E000FD5F0EA2205
:10081300E88FF0A4CC8BF0A42CFCE98EF0A42CFC84
:100823008AF0EDA42CFCEA8EF0A4CDA8F08BF0A402
:100833002DCC3825F0FDE98FF0A42CCD35F0FCEB61
:100843008EF0A4FEA9F0EB8FF0A4CFC5F02ECD3926
:0F085300FEE43CFCEAA42DCE35F0FDE43CFC2293
:100B5400C2D5E830E70FB2D5E4C39BFBE49AFAE4CC
:100B640099F9E498F8EC30E717B2D5120B8A120819
:100B74009EE4C39BFBE49AFAE499F9E498F88003B1
:100B840012089E30D50DE4C39FFFE49EFEE49DFD54
:040B9400E49CFC22BF
:1009CE00020DE0E493A3F8E493A34003F68001F252
:1009DE0008DFF48029E493A3F85407240CC8C3332A
:1009EE00C4540F4420C8834004F456800146F6DFF9
:1009FE00E4800B0102040810204080900E5EE47E1D
:100A0E00019360BCA3FF543F30E509541FFEE493ED
:100A1E00A360010ECF54C025E060A840B8E493A3B4
:100A2E00FAE493A3F8E493A3C8C582C8CAC583CADF
:100A3E00F0A3C8C582C8CAC583CADFE9DEE780BE97
:010E69000088
:1008620075F008758200EF2FFFEE33FECD33CDCC4D
:1008720033CCC58233C5829BED9AEC99E5829840D0
:100882000CF582EE9BFEED9AFDEC99FC0FD5F0D6AD
:10089200E4CEFBE4CDFAE4CCF9A88222B800C1B9D7
:1008A2000059BA002DEC8BF084CFCECDFCE5F0CB15
:1008B200F97818EF2FFFEE33FEED33FDEC33FCEB4E
:1008C20033FB10D703994004EB99FB0FD8E5E4F909
:1008D200FA227818EF2FFFEE33FEED33FDEC33FCF6
:1008E200C933C910D7059BE99A4007EC9BFCE99AEA
:1008F200F90FD8E0E4C9FAE4CCFB2275F010EF2F2F
:10090200FFEE33FEED33FDCC33CCC833C810D7072E
:100912009BEC9AE899400AED9BFDEC9AFCE899F869
:0E0922000FD5F0DAE4CDFBE4CCFAE4C8F922FC
:00000001FF
