:10000E000000FC4454545455FE5454F4444400002F
:10001E0040300F007D2525252725257D0000000079
:10002E000000E000000000FF0000000000E0000003
:10003E0000207F202020203F20202020207F000035
:10004E00024242FE4242FE0202FA0202FE0000009C
:10005E00080808078444231806013E4043407800F0
:10006E00804030EF2220203FD010121418100000D4
:10007E000000007F000000000106081020784000FC
:10008E0000000202020202FE02020202020200004E
:10009E00202020202020203F202020202020200053
:1000AE00080808FF8848009848280A2C48D80800F5
:1000BE000242817F0000404242427E424242400064
:1000CE00080888FF482800C848487F48C8480800E4
:1000DE000141807F00404020130C0C122160200053
:1000EE0010101010109050FF50901214101010009D
:1000FE00101008040201007F000001060C18080011
:10010E0000048444E4342C27242424E4040404004E
:10011E0002010000FF0909092949C97F00000000FA
:10012E00FE02324E8200FE4ACA4A4A4A7E00000051
:10013E00FF0002040300FF4020030C122160200088
:10014E0000008040300E8400000E1060C0808000E1
:10015E000001207028242331101014783001000083
:10016E0000109292929292929292120202FE0000CD
:10017E0000001F0404040404040F0020403F00008C
:10018E004020100CE3222222FE2222222202000014
:10019E000404040407040404FF0404040404040017
:1001AE000000000000FF1111111111FF00000000EE
:1001BE00004020100C0301010121413F000000000E
:1001CE00000000FE42424242424242FE0000000057
:1001DE000000003F101010101010103F0000000023
:1001EE0000FC444444FC1090101010FF101010003E
:1001FE0000070404040700000340807F0000000095
:10020E0080402098878280808384983060C0400030
:10021E0000804020100F000020403F000000000032
:10022E001212D2FE9111C0381000FF0008106000AB
:10023E00040300FF008380404020231008040300C5
:10024E0000E010080810E000000F102020100F0032
:10025E00001010F8000000000020203F20200000B9
:10026E000070080808887000003028242221300011
:10027E0000300888884830000018202020110E0019
:10028E000000C02010F8000000070424243F2400C2
:10029E0000F80888880808000019212020110E0097
:1002AE0000E0108888180000000F112020110E00A9
:1002BE0000380808C83808000000003F00000000A1
:1002CE000070880808887000001C222121221C0062
:1002DE0000E010080810E0000000312222110F008B
:1002EE00000000C0C0000000000000303000000020
:0C0A2000000000000000000000000022A8
:07000300E4F53BC2A0D2A20C
:01000A0022D3
:10088600AB37AA38A939853A82758300120561FF0C
:0E089600120003D2A0C2A28F90D2A1C2A12252
:0E0A1200120003C2A2C2A08F90D2A1C2A122E4
:0709B6007F011207FEAF35BF
:0909BD005307074307B8020A12B0
:0709C600E53624C0253AFFCD
:0909CD0053073F430740020A12E0
:060A6F004307C0020A1259
:060A750043073E020A12D5
:1007FE00EF14600B14601124027017C2A38002D292
:10080E00A3120A20C2A48007C2A3120A20D2A412E5
:03081E000A20228B
:1008DB001207FEE4FEAF061209BDE4FDE4FF1208A9
:0908EB00960DBD40F70EBE08ECAD
:0108F40022E1
:0A02FE008F358D368B378A38893929
:10030800E536C3944050351209B6AF361209CDE42C
:10031800F53AE536253AFFE433FEC3EF9440EE6440
:10032800809480500280087F021209B81209C61210
:100338000886053AE53AC3940840D7227F02120797
:10034800FE74C02536F536AF351209BDAF36120931
:10035800CDE4F53AE536253AFFE433FEC3EF9440A1
:10036800EE64809480500280061209B61209C61203
:0B0378000886053AE53AC3940840D916
:010383002257
:03073700FD7F043F
:04073A008F308D313E
:10073E00EB75F010A4244EF9740235F0FA7BFF8BA2
:10074E0032F5338934AF301202FEE53004FFAB329E
:0E075E00E5342408F9E43533FAAD310202FE29
:0405C2008F2E8D2FBC
:1005C600EB75F020A4240EF9740035F0FA7BFF8B4E
:1005D60030F5318932AF2E1202FEE52F2408FDAB2D
:1005E60030E5322408F9E43531FAAF2E1202FEE581
:1005F6002E04FFAB30E5322410F9E43531FAAD2F85
:100606001202FEE52E04FFE52F2408FDAB30E5328D
:0A0616002418F9E43531FA0202FE5F
:1008A4007FD0AE071FEE70FA7F01120A757F011226
:0C08B40008DB7F021208DBE4FF020A6F81
:1008F500E4FEEFC313FF30A503430780D2A6C2A6CB
:040905000EBE08EE2C
:0109090022CB
:10095B00E4FEEF1392A5D2A6C2A6EFC313FF0EBE01
:02096B0008F092
:01096D002267
:10096E00C2A7C2A6D2A712095BAF0512095BD2A617
:03097E00C2A722EB
:10090A00C2A7C2A6D2A7EF4401FF12095B1208F5DB
:04091A00D2A6C2A7F8
:01091E0022B6
:0F09D6003008047D108002E4FD7F8E12096E222E
:0F09E5007F8012090AAD074305807F8002096EEB
:0F09F4007F8012090AAD0753057F7F8002096ECD
:06079F008B2E8A2F893029
:1007A500C2A7C2A6D2A77FBF12095BE4FD1208F556
:1007B500AB2EAA2FA9308D82758300EF1205A012EA
:0A07C5000A200DBD08E7D2A6C2A766
:0107CF002207
:0607D0008B158A16891743
:1007D600C2A7C2A6D2A77FBE12095BE4FDAB15AACB
:1007E60016A9178D82758300120561FF12095B0D2C
:0707F600BD08EAD2A6C2A76C
:0107FD0022D9
:050A7B00000000002254
:10091F00D283120A7BD284120A7BC283120A7BC251
:04092F0084020A7BB9
:10093300C283120A7BD284120A7BD283120A7BC23D
:0409430084020A7BA5
:050A8000C284020933ED
:1009A500D284120A7BA2839209C284120A7BA2090D
:0109B500221F
:07084400AC0712091F7FA0A1
:10084B00E4FEEF339283EF25E0FF1209A50EBE08FD
:0A085B00F1D283120A7B1209A5B343
:010865002270
:10098100E4FFFEEF25E0FF1209A550010F0EBE089E
:01099100F273
:010992002242
:080A5800C2831209A5D283221A
:080A4F007FDCAE071FEE70FA18
:010A5700227C
:100866001208445017AF0412084B500EAF05120879
:100876004B5007AF0312084B800280001209332247
:10076C00120844502AAF0412084B5021AF0512084E
:10077C004B501A12091F7FA112084B500ED2831234
:10078C000981EF12058E1209A580048002800012E7
:03079C00093322FC
:060670008B188A19891A9B
:100676001208445037AF0412084B5030AF05120829
:100686004B5029E4FDAB18AA19A91A8D827583006F
:10069600120561FF12084B500BBD0F0B12093312E6
:0F06A6000A4F80031209330DBD10DA22120933F7
:0106B5002222
:060620008B1B8A1C891DE2
:100626001208445041AF0412084B503AAF05120865
:100636004B503312091F7FA112084B5029D283E475
:10064600FD120981AB1BAA1CA91D8D82758300EFC3
:100656001205A0BD0F081209A51209338003120A5C
:09066600580DBD10DC221209330D
:01066F002268
:100405007C10E511C4540FFB53030FEC24101207A5
:1004150037E511540FFBEC2418120737EC2420FDA7
:100425007B0C7F041205C2E50FC4540FFB53030177
:10043500EC2430FD7F0412073AE50F540FFBEC2442
:1004450038FD7F0412073AEC2440FD7B0D7F041232
:1004550005C2E50EC4540FFB530303EC2450FD7F86
:100465000412073AE50E540FFBEC2458FD7F0412E5
:0D047500073AEC2460FD7B0E7F040205C2F7
:100384007C20E50DC4540FFB5303037D207F06122C
:10039400073AE50D540FFBEC2408FD7F0612073ADB
:1003A400EC2410FD7B0F7F061205C2E50CC4540F2C
:1003B400FB530307EC2420FD7F0612073AE50C5497
:1003C4000FFBEC2428FD7F0612073AEC2430FD7B5A
:1003D400107F061205C2E50BC4540FFB530307EC50
:1003E4002440FD7F0612073AE50B540FFBEC24482A
:1003F400FD7F0612073AEC2450FD7B117F060205AF
:01040400C235
:1004F700E4FBFDFF1205C27B017D10E4FF1205C27C
:100507007B027D20E4FF1205C27B037D30E4FF12EE
:1005170005C27B047D40E4FF1205C27B057D50E4E4
:10052700FF1205C27B067D60E4FF1205C27B077DD3
:1005370070E4FF1205C27B087D207F021205C27B93
:10054700097D307F021205C27B0A7D407F021205BA
:0A055700C27B0B7D507F020205C23B
:0F0A03007B007A00790B12079F1204050203840F
:1008C000AB08E4FD7F0612073AAB097D087F0612EC
:0B08D000073AAB0A7D107F0602073AD2
:070A6800AE071FEE70FA2239
:080A6000AB13E4FDFF02086680
:1006B6007B007A00792FE4FDFF12076CE52F75F0B9
:1006C6006484FFE52F75F06484AEF0EE75F00A845D
:1006D600F52EEE75F00A84ACF0AB077F0412073AEC
:1006E600AB2E7D087F0412073AAB047D107F04020F
:0206F600073AC1
:010A8500224E
:1006F8003087063086032085357FD0120A68208728
:100708000D2087077FE8120A6880F6020A602086B3
:100718000D2086077FE8120A6880F60206B6208553
:0F0728000D2085077FE8120A6880F6120A8522E5
:0A0A4400E4FEEEC39F50030E80F89D
:010A4E002285
:0C0A2C00D2817F01120A44C281020A44F8
:10082100E4F520C282120A2C2080FDE4FD120A2C7C
:10083100E52025E0F520A28092000DBD08EFD282CF
:02084100AF20E6
:010843002292
:10099300D2AFD2A9758901D2B9758C3C758AB0D210
:0209A3008C22A4
:10094700120A801208A41209931204F7120A03125A
:0409570006F880FB23
:03000B000204826A
:10048200C0E0C0F0C083C082C0D075D000C000C040
:1004920001C002C003C004C005C006C007758C3C81
:1004A200758AB00514E514B41430751400120A03E9
:1004B2001208218F13E51375F06484F508E51375AE
:1004C200F06484AFF0EF75F00A84F509EF75F00A75
:1004D2008485F00A1208C08513B0D007D006D00573
:1004E200D004D003D002D001D000D0D0D082D083AB
:0504F200D0F0D0E03263
:03000000020A38B9
:0C0A3800787FE4F6D8FD75813B02094789
:10056100BB010CE58229F582E5833AF583E022504F
:1005710006E92582F8E622BBFE06E92582F8E22299
:0D058100E58229F582E5833AF583E49322B3
:10058E00BB010689828A83F0225002F722BBFE014C
:02059E00F32246
:1005A000F8BB010DE58229F582E5833AF583E8F091
:1005B000225006E92582C8F622BBFE05E92582C83D
:0205C000F22225
:00000001FF
