:0300000002000EED
:0C000E00787FE4F6D8FD75813E020055B5
:1001FA003F065B4F666D7D077F6F00BF86DBCFE6EC
:05020A00EDFD87FFEF90
:10012C000235000002370000023A0000023C0000D9
:10013C000421000000000425000000000429000038
:08014C000000042D000000007A
:1001CE00D2AFD2AC758920759850E4F587758BFD4A
:0601DE00758DFDD28E229A
:10017800D3EF9400EE6480948040147D6E7C00ED93
:0F0188001D70011CED4C70F7EF1F70E41E80E13D
:010197002245
:1001E400C2B0C2B27F017E00120178D2B2D2B07F17
:0601F400017E000201780B
:1001B7007580FFC2B0C2B17F017E00120178AF80A7
:0601C700D2B1D2B07E00AF
:0101CD00220F
:10019800AB07AA067C007D0A12009A8E218F22AE38
:0F01A80002AF037C007D0A12009A8C238D242263
:0F020F00E4F589758CE0758A1875A88AD28C225F
:1000EF00E4F508F50912020FD2A0D2A7D3E5369492
:1000FF0032E535940040F5E4F535F5361201E4129A
:10010F0001B78E318F32D3E532947FE531940040C1
:0D011F0006C2A0C2A780D5D2A0D2A780CF73
:03000B000201559A
:10015500C0E0758CD1758A040536E5367002053523
:100165000538E53870020537053BE53B7002053A71
:03017500D0E032A5
:10001A000200EFE493A3F8E493A34003F68001F20D
:10002A0008DFF48029E493A3F85407240CC8C333E7
:10003A00C4540F4420C8834004F456800146F6DFB6
:10004A00E4800B010204081020408090012CE47E19
:10005A00019360BCA3FF543F30E509541FFEE493AB
:10006A00A360010ECF54C025E060A840B8E493A372
:10007A00FAE493A3F8E493A3C8C582C8CAC583CA9D
:10008A00F0A3C8C582C8CAC583CADFE9DEE780BE55
:0101540000AA
:10009A00BC000BBE0029EF8DF084FFADF022E4CC4A
:1000AA00F875F008EF2FFFEE33FEEC33FCEE9DEC13
:1000BA00984005FCEE9DFE0FD5F0E9E4CEFD22ED59
:1000CA00F8F5F0EE8420D21CFEADF075F008EF2FA3
:1000DA00FFED33FD4007985006D5F0F222C398FD94
:0500EA000FD5F0EA2231
:00000001FF
