:0A00D7003F065B4F666D7D077F6FEB
:0C00BE007F647E647DF8DDFEDEFADFF674
:0100CA002213
:10000300E4F58020901D30911A309217309314300C
:10001300941130950ED297D2B79000DDE493F5801A
:100023001200BE30901620911330921030930D3091
:10003300940A3095079000DCE493F58030901630F5
:10004300911320921030930D30940A30950790004D
:10005300DBE493F5803090163091133092102093A7
:100063000D30940A3095079000DAE493F5803090D0
:100073001630911330921030930D20940A30950767
:100083009000D9E493F58030901A30911730921490
:1000930030931130940E20950BC297C2B79000D8BD
:1000A300E493F580309603020006C297C2B790002E
:0B00B300D7E493F5801200BE020006A7
:030000000200CB30
:0C00CB00787FE4F6D8FD75810702000381
:00000001FF
