:1004E600566F6C743A0023446574656374696E676D
:0A04F6002E2E2E230000000000004F
:06051300D2A77F0A7E0062
:0B051900EF1FAC0670011E4C70F622B4
:10050000C2A5D2A6120513C2A7308706C2A7D2A7DA
:0305100080F7224F
:10052400A20092A5C2A6851380120513C2A70205D4
:0105340000C6
:0704C200E50B250DFFAD0C59
:1004C900AB07ED700AC200EB4480F513120524BD99
:0D04D900010AC200EB44C0F51312052422F5
:10049400C2007513381205247F2C7E011205197FC2
:1004A4002C7E01120519C20075130C120524C2001A
:0E04B400751301120524C200751306020524FB
:080449008B088A09890A8D0B5A
:10045100E4F50DF50EAB08AA09A90A1202C960322A
:10046100E50D700AE50E70061204C2750E01E50E67
:10047100B401E21204C2D200AB08050AE50AAA09D6
:100481007002050914F91202C9F513120524050DAC
:0204910080C326
:010493002246
:0C0345008E088F098C0A8D0B8A0C8B0D22
:10035100780E7C007D007BFF7A0479FB7E007F05AF
:100361001202A3AC08AD09E41201197BCD7ACC7954
:100371009C784112000E1201528E088F097C037D78
:10038100E81202E2EF2430F50E750F2EAE08AF0928
:100391007C037DE81202E2AA04AB057D647C00AF18
:1003A10003AE021202E2EF2430F5107D647C00AF4F
:1003B10003AE021202E27E007F0ACFCDCFCECCCEB9
:1003C1001202E2EF2430F511AE08AF097C007D0A7C
:1003D1001202E2ED2430F512AF0BAD0D1204C9E4A7
:1003E100FDD200740E2DF8E6F5131205240DBD059E
:0903F100F0D20075135602052438
:1003FA00758902758C14E4F58A75A882D28C120468
:10040A009475900F7BFF7A0479E6E4F50C7D03126C
:10041A000449C293D293C2933092FDD29185B0140B
:10042A00AF147E00E4FBFA7D08FC120345C2917BFF
:0F043A00FF7A0479EC750C017D0112044980C52D
:03000B00020003ED
:03000300B2903286
:10000E00EC4D6011E8497017ED33EC3304600DE4EC
:10001E00FCFFFEFD22E933E8330470F80201BE1244
:10002E00018958046009E4CC248150062850090245
:10003E0001C82840030201C5C0E0EB4A7044B980F4
:10004E0006D0E0FB0201B4EF4E701CBD8008EBFF42
:10005E00EAFEE9FD80EBE98DF0A4FEE5F00200F783
:10006E00E9CDF9EAFEEBFFEF89F0A4FCE5F0CE89CD
:10007E00F0A42EFFE435F0CD89F0A42DFEE435F08A
:10008E008067EF4E7005BD80D780C3EF8BF0A4ACB8
:10009E00F0EE8BF0A42CFCE435F0F8EF8AF0A42CF3
:1000AE00E5F038FCE433CB8DF0A42CFCE5F03BF806
:1000BE00EE8AF0A42CFCE5F038F8E433CF89F0A4F6
:1000CE002CFCE5F038CF3400CE89F0A42FFFE5F0FC
:1000DE003EFEE433C98DF0A42EFEE5F039CD8AF054
:1000EE00A42FFFE5F03EFEE43DFD33D0E0FB5007CC
:1000FE000BBB000F0201C8EC2CFCEF33FFEE33FEFE
:06010E00ED33FD0201A02B
:1001140075F020800E75F010800575F0087D007E66
:10012400007F003392D530D503120337EC334010EF
:10013400EF33FFEE33FEED33FDEC33FCD5F0ED226F
:0E014400E5F0247EA2D513CC92E7CDCEFF22AB
:10015200EDD2E7CD33EC3392D524814006E4FFFEA5
:10016200FDFC22FCE4CFCECDCC24E0501174FF8004
:10017200EDC3CC13CCCD13CDCE13CECF13CF0470A1
:07018200F030D5DE02033767
:10018900E9D2E7C933E833F892D5EDD2E7CD33ECBC
:0701990033FC5002B2D52235
:1001A000EC30E7100FBF000C0EBE00080DBD0004C0
:1001B0000BEB6014A2D5EB13FCED92E7FD2274FF6C
:1001C000FCFDFEFF22E480F8A2D574FF13FC7D80C5
:0301D000E480EFD9
:03000000020535C1
:0C053500787FE4F6D8FD7581200203FAFF
:1001D300E709F608DFFA8046E709F208DFFA803E0E
:1001E30088828C83E709F0A3DFFA8032E309F608FB
:1001F300DFFA8078E309F208DFFA807088828C8363
:10020300E309F0A3DFFA806489828A83E0A3F60816
:10021300DFFA805889828A83E0A3F208DFFA804CF0
:1002230080D280FA80C680D4806980F280338010C7
:1002330080A680EA809A80A880DA80E280CA803330
:1002430089828A83ECFAE493A3C8C582C8CCC583A8
:10025300CCF0A3C8C582C8CCC583CCDFE9DEE78078
:100263000D89828A83E493A3F608DFF9ECFAA9F0F7
:10027300EDFB2289828A83ECFAE0A3C8C582C8CC4D
:10028300C583CCF0A3C8C582C8CCC583CCDFEADE66
:10029300E880DB89828A83E493A3F208DFF980CCC8
:1002A30088F0EF60010E4E60C388F0ED2402B404C1
:1002B3000050B9F582EB2402B4040050AF23234568
:0602C30082239002237368
:1002C900BB010689828A83E0225002E722BBFE0233
:0902D900E32289828A83E4932266
:1002E200BC000BBE0029EF8DF084FFADF022E4CC00
:1002F200F875F008EF2FFFEE33FEEC33FCEE9DECC9
:10030200984005FCEE9DFE0FD5F0E9E4CEFD22ED0E
:10031200F8F5F0EE8420D21CFEADF075F008EF2F58
:10032200FFED33FD4007985006D5F0F222C398FD49
:050332000FD5F0EA22E6
:0E033700C3E49FFFE49EFEE49DFDE49CFC22D7
:00000001FF
