:0300000002026099
:0C026000787FE4F6D8FD75810C02000EDA
:0B026C00EF1FAC0670011E4C70F62264
:10000E00E4F589758CE0758A18D28CD2A9D2AFF539
:10001E000AF50CF50B7580FF7590FF75B0FF75A096
:10002E00FF20801CE50A70187F0AFE12026C2080E9
:10003E000FE50A700B750A01F50BF50CF508F509BD
:10004E0020811CE50A70187F0AFE12026C20810FB7
:10005E00E50A700B750A02F50BF50CF508F509E5C6
:10006E000A640160030201A1E50BD39402500675E8
:10007E0090FB0201FCE50BD3940550067590F5023A
:10008E0001FCE50BD3940850067590EE0201FCE5D9
:10009E000BD3940B50067590DF0201FCE50BD39445
:1000AE000E50067590BF0201FCE50BD3941150065D
:1000BE0075907F0201FCE50BD3941550097590FFE6
:1000CE0075B0FE0201FFE50BD3941950097590FF30
:1000DE0075B0FD0201FFE50BD3941D50097590FF1D
:1000EE0075B0FB0201FFE50BD3942150097590FF0B
:1000FE0075B0F70201FFE50BD3942550097590FFFB
:10010E0075B0EF0201FFE50BD3942850097590FFEF
:10011E0075B0DF0201FFE50BD3942B50097590FFEC
:10012E0075B0BF0201FFE50BD3942E50097590FFF9
:10013E0075B07F0201FFE50BD39431500C7590FF23
:10014E0075B0FF75A0FE020202E50BD39434500C7D
:10015E007590FF75B0FF75A0FD020202E50BD394FA
:10016E0037500C7590FF75B0FF75A0FB020202E5CB
:10017E000BD3943A500B7590FF75B0FF75A0F780B6
:10018E0073E50BD3943B506C7590FF75A0FF75B063
:10019E00FF8061E50A6402705BE50CD394025005A2
:1001AE0075A0FD800AE50CD39405500875A0FA756C
:1001BE00B0FF802BE50CD39408500875A0F775B0EE
:1001CE007F801CE50CD3940B500875A0FF75B0BF53
:1001DE00800DE50CD3940E500B75A0FF75B0DF7536
:1001EE0090FF8010E50CD3940F50097590FF75B0F9
:1001FE00FF75A0FFC3E50994F4E5089401500302CE
:10020E00002FE4F508F509E50AB4010BE50BC394DC
:10021E003C5004050B800EE50AB40209E50CC394AC
:10022E00105002050CE50BC3943C4003E4F50AE5BF
:0F023E000CC39410500302002FE4F50A02002FA6
:03000B0002024DA1
:10024D00C0E0758CE0758A180509E509700205088E
:03025D00D0E032BC
:00000001FF
