:030000000203E315
:0C03E300787FE4F6D8FD75812002042A22
:1006D3002D2D2D20203A20203A20202D2D2D202095
:1006E300005345543A2020432053413A20202E20E2
:0206F3004300C2
:0E078F00010F00010800010B0C010900C10060
:040669007F647E002C
:10066D00E4FDFCC3ED9FEC9E5015E4FBFA0BBB00C3
:0F067D00010AEB643C4A70F50DBD00010C80E4EE
:01068C00224B
:0B06B1007F057E0012066DE4FD7F381F
:1006BC008F19ED6003120713851980C2A0C2A1D255
:0706CC00A2000000C2A222FF
:100749008F19120713851980D2A0C2A1D2A2000065
:0407590000C2A22216
:100713007580FFD2A2C2A0D2A100E58030E70AC251
:0C072300A20000D2A2000080F1C2A222BD
:1005D400E4F5807F0FFE1206B51206B11206B17F54
:1005E400057E0012066D7D017F381206BC7D017FF9
:1005F400081206BC7D017F011206BC7D017F061234
:0906040006BC7D017F0C0206BC5E
:0F063F00E50F75F00A84E5F02430FBE4FD7F0A37
:10064E008B1853050153070FED6003430740430713
:0B065E0080E4FD1206BCAF1802074943
:080598007A067BE47D01E4FF1B
:0805A0008F138D148A158B16D0
:1005A800E4F51753140153130FE513C39410501BAC
:1005B800E5162517F582E43515F583E493FBAD14AC
:0B05C800AF1312064E0517051380DE6E
:0105D3002205
:07075D0012072F7F647E00EC
:0B076400EF1FAC0670011E4C70F62267
:10068D00E4D2977F08FE120764C2977F507E001256
:10069D000764D2977F0E7E00120764A2977F147EA7
:0406AD0000020764DC
:1006F500E4FB7D08C297EBC313FBD2973097034306
:0D07050003807F047E00120764DDE9AF036E
:0107120022C4
:02072F00AD0714
:100731007B08C297ED1392977F057E00120764D262
:0707410097EDC313FDDBEB94
:01074800228E
:10046F00E4FAFFF51312068D7FCC12072F7F44128B
:10047F00075D12068D7FCC12072F7FBE12075D120C
:10048F0006F5AA071206F5EFC454F0F510EA54F07A
:10049F00C4540F2510F510EA540FF511EFFEAD02FD
:1004AF007C00E42DFFEC3EC4F854F0C8EFC4540FA9
:0304BF0048F50AF3
:0104C2002217
:10000E007D017F0C1206BC7A067BD3E4FDFF120540
:10001E00A0120598E50B75F00A842430FBE4FD7FF1
:10002E000312064EE50B75F00A84E5F02430FBE46E
:10003E00FD7F0412064EE50875F00A842430FBE4B9
:10004E00FD7F0612064EE50875F00A84E5F02430B1
:10005E00FBE4FD7F0712064EE50F75F00A8424308F
:10006E00FBE4FD7F0912064E12063FE50D75F00A00
:10007E00842430FB7D017F0412064EE50D75F00AD7
:10008E0084E5F02430FB7D017F0512064EE51075E8
:10009E00F00A842430FB7D017F0B12064EE51075AD
:1000AE00F00A84E5F02430FB7D017F0C12064EE54C
:1000BE001175F00A842430FB7D017F0E12064E204E
:1000CE0000117B4FE4FD7F0E12064E7B46E4FD7F52
:1000DE000F801E7B4FE4FD7F0E12064E7B4EE4FD1D
:1000EE007F0F12064E3001047B7C80027BEFE4FD15
:0500FE00FF12064E2276
:100103007D017F0C1206BC7A067BD3E4FDFF12054A
:10011300A0120598E50875F00A842430FBE4FD7FFE
:100123000612064EE50875F00A84E5F02430FBE478
:10013300FD7F0712064EE50F75F00A842430FBE4B9
:10014300FD7F0912064E12063FE50D75F00A842461
:1001530030FB7D017F0412064EE50D75F00A84E540
:10016300F02430FB7D017F0512064EE51075F00A81
:10017300842430FB7D017F0B12064EE51075F00AD7
:1001830084E5F02430FB7D017F0C12064EE51175EA
:10019300F00A842430FB7D017F0E12064E7D017F21
:1001A3000F1206BCE50B75F00A842430FBE4FD7FD7
:1001B3000312064EE50B75F00A84E5F02430FBE4E8
:0601C300FD7F0402064E60
:1001C9007D017F0C1206BC7A067BD3E4FDFF120584
:1001D900A0120598E50B75F00A842430FBE4FD7F35
:1001E9000312064EE50B75F00A84E5F02430FBE4B2
:1001F900FD7F0412064EE50F75F00A842430FBE4F6
:10020900FD7F0912064E12063FE50D75F00A84249A
:1002190030FB7D017F0412064EE50D75F00A84E579
:10022900F02430FB7D017F0512064EE51075F00ABA
:10023900842430FB7D017F0B12064EE51075F00A10
:1002490084E5F02430FB7D017F0C12064EE5117523
:10025900F00A842430FB7D017F0E12064E7D017F5A
:100269000F1206BCE50875F00A842430FBE4FD7F13
:100279000612064EE50875F00A84E5F02430FBE421
:06028900FD7F0702064E96
:10028F007D017F0C1206BC7A067BD3E4FDFF1205BD
:10029F00A0120598E50B75F00A842430FBE4FD7F6E
:1002AF000312064EE50B75F00A84E5F02430FBE4EB
:1002BF00FD7F0412064EE50875F00A842430FBE436
:1002CF00FD7F0612064EE50875F00A84E5F024302E
:1002DF00FBE4FD7F0712064EE50F75F00A8424300C
:1002EF00FBE4FD7F0912064E12063FE51075F00A7A
:1002FF00842430FB7D017F0B12064EE51075F00A4A
:10030F0084E5F02430FB7D017F0C12064EE511755C
:10031F00F00A842430FB7D017F0E12064E7D017F93
:10032F000F1206BCE50D75F00A842430FB7D017FAA
:10033F000412064EE50D75F00A84E5F02430FB7DBE
:06034F00017F0502064ECD
:10060D007590FFE590F460297F327E0012066DE54E
:10061D0090F4601DAF90EF2409601424FC600D244C
:10062D00FE600614700B02076F020514020556B228
:01063D0000BC
:01063E002299
:10076F00120669050EE50EC394044003E4F50E224C
:10051400120669E50E14601314601D146027240389
:10052400702FE59064F77029B20022050BE50BC328
:100534009417401D750B17220508E508C3943B402A
:100544001075083B22050DE50DC394634003750D3A
:02055400632220
:10055600120669E50E14601314601D146027240347
:10056600702FE59064F77029B20022150BE50BD3C6
:100576009400501DE4F50B221508E508D3940050AD
:1005860010E4F50822150DE50DD394015003750D01
:02059600012240
:10077F00758901758C3C758AB0D2AFD2A9D28C2203
:03000B000204C329
:1004C300C0E0C0F0C083C082C0D075D000758C3C42
:1004D300758AB00509E509C394144005050F75092C
:1004E30000E50FC3943C40050508750F00E508C3FC
:1004F300943C4005050B750800E50BC394184003B5
:10050300750B0012060DD0D0D082D083D0F0D0E08E
:0105130032B5
:100355007590FF7FF47E0112066D1205D412077F9A
:1003650012068D7A067BD3E4FDFF1205A0120598CF
:1003750012060D12046FE50E14600F14601114605F
:10038500132403701912000E800D12010380081248
:1003950001C9800312028F7FE87E0312066D1206E3
:1003A5000D300034E50D2401FFE433FEC3E5109F55
:1003B500EE6480F87480984004D201C2B7E510C39A
:1003C500950D50AC7FE87E0312066DE510C3950DC3
:0E03D500509EC201D2B78098C201D2B780926A
:1003EF00020355E493A3F8E493A34003F68001F2CC
:1003FF0008DFF48029E493A3F85407240CC8C3330F
:10040F00C4540F4420C8834004F456800146F6DFDD
:10041F00E4800B010204081020408090078FE47ED7
:10042F00019360BCA3FF543F30E509541FFEE493D2
:10043F00A360010ECF54C025E060A840B8E493A399
:10044F00FAE493A3F8E493A3C8C582C8CAC583CAC4
:10045F00F0A3C8C582C8CAC583CADFE9DEE780BE7C
:01079D00005B
:00000001FF
