:0A023800039F250D9949411F01099C
:03000B000201FEF1
:1001FE00C0E0C0F0C083C082C0D075D000C2AF7561
:10020E008CFF758A9C12007A1200DB12013C1201DF
:0E021E009DD2AFD0D0D082D083D0F0D0E032CD
:10000E007590FFE4F5B0758CFF758A9C438911D20B
:10001E00A9D2ABC28ED28CD2AF750F17750E1775D3
:10002E000D17750C177E80E4FD8EA0ED20E00EC33B
:10003E0013240CF8E675F00A84AFF0800CEDC313B0
:10004E00240CF8E675F00A84FFEF90023893F4F56D
:10005E0080E4FBFA0BBB00010AEB640A4A70F5EE72
:0C006E00C313FEE4F5800DBD08BF80B98F
:10007A00309006309103750801209006209103758F
:10008A000802E508604AA290309101B350423090CC
:10009A001DE50C94004007E508B40102150CE50CB7
:1000AA00C394405028E508B40202050C801F309121
:1000BA001FE50CC394405007E508B40102050CE59E
:1000CA000CD394004007E508B40202150CE4F508C5
:0100DA002203
:1000DB003092063093037509012092062093037525
:1000EB000902E509604AA292309301B35042309263
:1000FB001DE50D94004007E509B40102150DE50D52
:10010B00C394405028E509B40202050D801F3093BB
:10011B001FE50DC394405007E509B40102050DE539
:10012B000DD394004007E509B40202150DE4F5095F
:01013B0022A1
:10013C00309406309503750A0120940620950375BA
:10014C000A02E50A604AA294309501B350423094F9
:10015C001DE50E94004007E50AB40102150EE50EEC
:10016C00C394405028E50AB40202050E801F309556
:10017C001FE50EC394405007E50AB40102050EE5D5
:10018C000ED394004007E50AB40202150EE4F50AFA
:01019C002240
:10019D00309606309703750B012096062097037550
:1001AD000B02E50B604AA296309701B35042309690
:1001BD001DE50F94004007E50BB40102150FE50F87
:1001CD00C394405028E50BB40202050F801F3097F1
:1001DD001FE50FC394405007E50BB40102050FE571
:1001ED000FD394004007E50BB40202150FE4F50B95
:0101FD0022DF
:0300000002022CCD
:0C022C00787FE4F6D8FD75810F02000E0B
:00000001FF
