:1000160000E010080810E000000F102020100F006C
:10002600001010F8000000000020203F20200000F3
:10003600007008080888700000302824222130004B
:1000460000300888884830000018202020110E0053
:100056000000C02010F8000000070424243F2400FC
:1000660000F80888880808000019212020110E00D1
:1000760000E0108888180000000F112020110E00E3
:1000860000380808C83808000000003F00000000DB
:100096000070880808887000001C222121221C009C
:1000A60000E010080810E0000000312222110F00C5
:1000B6000020440820E092941028AE682404000032
:1000C600000C030402190C030212221F0101010095
:1000D6000020A09010F000407FC02024880000007F
:1000E6001008040201021410080506091020380041
:1000F600006050CC4030404040FE202020200000D0
:100106000012130A0905003A2A2525151D000000CC
:1001160000000060A8A8A8FF94547000000000002A
:10012600101008080402017F0204080810101000CD
:1001360020201090A8A4AAB1A2E4A888103010002C
:100146000000809F4020100E102060DF000000009D
:1001560000FC0404FC20584F4A4848C80808080018
:10016600000F020207003048444241404040700000
:1001760000F010FF10F02018E8090E0AA818080071
:100186002023211F113B10003F424141403800000F
:100196004020100CE3222222FE222222220200000C
:1001A6000404040407040404FF040404040404000F
:1001B6000000000000FF1111111111FF00000000E6
:1001C600004020100C0301010121413F0000000006
:1001D60000FC444444FC1090101010FF1010100056
:1001E60000070404040700000340807F00000000AD
:1001F60080402098878280808384983060C0400049
:1002060000804020100F000020403F00000000004A
:100216001212D2FE9111C0381000FF0008106000C3
:10022600040300FF008380404020231008040300DD
:10023600000000BE2A2A2AEA2A2A2A2A3E000000AC
:10024600004846414949497F494949494941400091
:100256000004FF545454FF0400FE222222FE000034
:1002660042221B02020A336218070222423F0000A2
:100276007000FF08B0888888FF888888F88080002A
:100286000000FF008040300E0106083060C04000CC
:10029600000040FC44444446FA42434342400000C6
:1002A6000020180C071220403F0000020C381000F6
:1002B60080808080BEAAAAAAAAAAAABE8080800040
:1002C600004020100E10203F444444444440400067
:1002D60000808080808080808080808080C08000D8
:1002E6000000000000000000000000000000000008
:1002F600001212D2FE5181F01010FF1010F0000013
:1003060008040300FF0000030101FF0101030000D0
:1003160000848494959694FC949695949484800095
:100326008080444424140C070C142464C444000044
:100336001088E43B1204F494F49F94F494F40400BB
:100346000100FF00423A023A424A5242620A320031
:100356000038380000000000000000000000000027
:10036600C0300808080838000718202020100800A8
:100376000000000000000000003030000000000017
:10038600000000FE42424242424242FE000000009D
:100396000000003F101010101010103F0000000069
:1003A60000808080808080808080808080C0800007
:1003B6000000000000000000000000000000000037
:1003C60000000404040404040404040604000000F9
:1003D600001010101010101010101010101810002F
:1003E6000004848484848484848484848404000053
:1003F6000020202020202020202020202020200037
:1004060000FE020202FE0202FE02020202FE0000DC
:10041600007F28242320202021222222227F000060
:10042600000282828282FE828282C28202000000F2
:1004360020202020203F202020203F202030200088
:10044600101010101091121E9410101010101000A1
:10045600004020100C0301000001020C783000005F
:10046600000000000000000000010101010101017F
:10047600000000F0000000000101011F0101010061
:100486004020F8171214FC129210FF1012DC900094
:1004960000007F0024623F0120100B0C3341300026
:1004A60000007E222222FEA2A2BEA2A2A2BE0000BE
:1004B6008088888442432528101008040300000021
:1004C6000404FF949494FF0400FE2222E1212000FC
:1004D6004424370404146744300F0000FF00000072
:1004E600080808080808F94A4C4848C808080800D7
:1004F600404020100C0300002040403F0000000058
:100506001010FF1010000808FF080808F800000087
:1005160008180F048541310D0305091131612100C9
:100526000002020202827E22222222F2220202001D
:10053600004020100C0300002060201F0000000077
:100546004020100CE3222222FE2222222202000058
:100556000404040407040404FF040404040404005B
:100566000000FE0222222222FA222222E2020200B7
:1005760040300F0040201806010020603F000000B8
:1005860010212011102120111021201110212011DD
:100596001112101301311121111210130131112101
:1005A6000121101111211012002010110111101239
:1005B60010212022012120111122101210302011A9
:1005C6001120101200201021122120221131102199
:1005D60011211022012010111121102201201011C9
:1005E6001121201210312021112120121031202139
:1005F60000080108000000000000000000000000E4
:1006060000000000000000000000000000000000E4
:1006160000000000000000000000000000000000D4
:1006260000000000000000000000000000000000C4
:1006360000000000000000000000000000000000B4
:1006460000000000000000000000000000000000A4
:080656000000000000000C0888
:10299F000124000221FFFF01233FC103C102C181B6
:100AB500EF3395E0FEEFC4F8540FC868FFEEC45459
:100AC500F048FE74162FF974003E754DFFF54E89FA
:100AD5004F22EC540F75F004A4FFAEF0EC54F0F582
:100AE50082EF4582FF2488F58274053EF583E49301
:100AF50054F0C4540F22E54525E0FFE433FE7402AB
:100B05002FF58274003EF583E0FD74002FF58274A5
:100B1500003EF583EDF074032FF58274003EF583F6
:100B2500E0FD74012FF58274003EF583EDF022E5BA
:100B350048540F25E025E0FFE54854F02F22AD4E3F
:100B4500ED3395E0FCED2401FDE43CFCEB3395E051
:100B5500FAED22EC540F75F004A4FFAEF0EC54F05E
:100B6500F9F582EF4582FF2488F58274053EF58309
:100B7500E493540F22E548540F75F004A4FFE548AB
:100B850054F0FDEF4D22FFED3395E0FCED2401FD22
:100B9500E43CFC22FFEB3395E0FAEF2BFFE43AFE51
:100BA500C3EF9DEC6480F8EE64809822E53F25E074
:100BB500FFE433FE74FE2FF58274FF3EF583E022D9
:100BC500EC540F75F004A4FFAEF0EC54F0F582EF91
:100BD5004582FF2486F582740522E53F25E0FFE482
:100BE50033FE74FF2FF58274FF3EF583E022AB4C94
:100BF500AA4DA94E121D60FE54F0C4540F254AFF9C
:100C0500EE540F254BFD2275F00A84E5F075F010C2
:100C1500A42416F9740035F022EF3395E0FEEF2495
:100C250001FDE43EFCE54CF5823395E0F5832212A7
:100C35002917EF5470C4540F75F00AA4FEEF540F32
:100C45002E22E548540F75F004A4FFAEF022AD4402
:100C5500FFED3395E0FCEF2DFFE43CFE227FC27EE5
:100C6500011229057FC27E011229057F021228B8CB
:100C750012284D754DFF754E00754FB67B017D04ED
:100C8500E4FF22EF3395E0FEEF2401FFE43EFE2270
:100C9500EB131313541FFFAD041227C5AD07EC4426
:100CA50040FF122949EB131313541F44B8FF1229AF
:100CB50049EB5407FF7401A8070822AB4DAA4EA9BA
:100CC5004F8D82758300121D60FF1229BF0D22EE24
:100CD5004CFEEF4D4E22754E04754FA67B017D06E9
:100CE500E4FF22131313541F24B8FF02294925E0FA
:100CF500FDE54375F020A42476F9740235F0754DB1
:100D0500FFF54E894F22E53F14FFE545C39F227449
:100D1500892FF582740522EB2440FF022949EC4E08
:100D2500FEED4FFF22121D60FF75F00A84227487C5
:100D35002FF582740522FF2489F58274052235F08A
:100D4500F583E493FE54F0C4540F254BFFEE540F86
:100D5500254CFD22754DFF754E00754FF67B01E460
:100D6500FD7F0122754DFF754E01754F167B017D87
:100D7500027F0122754DFF754E01754FD67B017DB2
:100D850002E4FF22241FFFEA29FD0227767C00AF3B
:100D950003AE02121DD37C007D0A021DD3EE25E0B1
:100DA50025E0240222E54A540FFE25E025E0FFE573
:100DB5004A54F0FD2F222BFDE43AFCC3ED9FEE646F
:100DC50080F8EC648098227D01241EFF022776FFBF
:100DD500EA33333354F829FD1227C5EFF4FF2275A2
:100DE5008901D288D28AD2AFD2A9D2A8D2AA227535
:100DF5004DFF754E00754F16222420FFAD020227C8
:100E050076EF3395E0FEEF2401FDE43EFCE54D224F
:100E15002487F582740535F0222488F5827405351A
:100E2500F022131313541FFF22854446AB44AD45EE
:100E3500AF48222BFDE43AFC74862FF58274052217
:100E45007F011228B874C022AD4EED3395E0FCEF5A
:100E5500227D3C7F01021FD8AC07122917AE07EE91
:100E6500540F22C2A1D2A08E80C2A0D2A822EC2407
:100E7500B9FF0229492421FFEA2402FD022776EF62
:100E850025E025E0241F2274002FF58274003EF52D
:100E950083222545FFEC3EFE227D19121DC18E479A
:100EA5008F4822AC031228B8EC25E0FC22EA131384
:100EB50013541F222420FFEA04FD022776754DFFF7
:100EC500754E04754F8622D3EF940EEE64809480A0
:100ED50022754DFF754E00754FD622754DFF754E27
:100EE50001754FF622754DFF754E04754F662275D7
:090EF5004DFF754E01754F3622C8
:0A29E400EFD3940040031F80F72298
:0B29D900EF1FAC0670011E4C70F622D0
:10288400C2AFD2B47F081229E4C2B47F461229E44D
:0A289400D2B47F191229E4D2AF225A
:10280D00E4FBC2AF7D08C2B4EBC313FBD2B430B44A
:10281D00034303807F0A7E001229D9DDE9D2AFAFD1
:01282D0003A7
:01282E002287
:02282F00AD07F3
:10283100C2AF7B08C2B4ED1392B47F0A7E001229A5
:0B284100D9D2B4EDC313FDDBEBD2AF26
:01284C002269
:1022A700E4F545F546F547F5481228847FCC122812
:1022B7002F7F4412282F7F647E001229D912288489
:1022C7007FCC12282F7FBE12282F12280D8F451280
:1022D700280D8F46EFFE7C00E4120E97E4FDFB7A93
:1022E700F8F9F8C3121E28E546FE7C00E4501D12DB
:1022F7000E97EFF4FFEEF4FEEF2401F548E43EF508
:1023070047FEAF48120E9E7524018009120E9712E0
:102317000E9EE4F524E548AE477802CEC313CE13EC
:03232700D8F9FFE3
:01232A002290
:102716001222A7AB07AA06E5226B7003E5216A60C1
:102726001B7C037DE8121DD38F327D64120D928DC2
:0C273600337D0A120D928D348A218B2213
:012742002274
:10295600E4FEEF1392B7D2B6C2B6EFC313FF0EBEB4
:0229660008F077
:01296800224C
:10297C00E4FFC313A2B792E7D2B6C2B60FBF08F2F8
:01298C00FF4B
:01298D002227
:10296900C2B5C2B6D2B5122956AF05122956D2B68A
:03297900C2B522C2
:10291700C2B5C2B6D2B5EF4401FF12295612297CBF
:04292700D2B6C2B5AD
:01292B002289
:0F29B0003005047D108002E4FD7F8E122969221C
:10292C00AC05AB07C2051229B0AF03AD041229697F
:05293C00D2050229B0E4
:10289E00120E5DFFBF090AAF04EE54F02410FD8046
:0928AE0005AF040EAD0612296904
:0128B70022FE
:1028D200120E5DAF04700AEE54F024F04409FD803C
:0728E200031EAD0612296977
:0128E90022CC
:1027EA007F85122917EF547FFCC2051229B03004E5
:1027FA0006EC4480FD8002AD047F84122969D2056B
:03280A000229B0F0
:1020B5007F80120C34121D8D7F82120C349000012A
:1020C500121D9F7F84122917EF5430120C3A90008D
:1020D50002121D9F7F86122917EF5430120C3A9079
:1020E5000003121D9F7F8A122917EF5407900004E1
:1020F500121D9F7F88122917EF5410120C3A900079
:1021050005121D9F7F8C122917EF54F0120C3A907F
:102115000006121D9F900006120D2AF525EF75F099
:102125000A8485F026900005120D2AF527EF75F033
:102135000A8485F028900003120D2AF529EF75F021
:102145000A8485F02A900002120D2AF52BEF75F00E
:102155000A8485F02C900001120D2AF52DEF75F0FB
:102165000A8485F02E121D47FF75F00A84F52FEFBE
:0F21750075F00A8485F030900004121D60F5317A
:012184002238
:10264C00C2041227EA7D087F8012292C7D087F8224
:10265C0012292C7D087F8412292C7D197F86122942
:10266C002C7D087F8812292C7D107F8C12292C7DC3
:06267C00057F8A02292CF3
:10298E007F80122917EF30E707E4FD7F8012292C94
:01299E002216
:042901007FC27E0112
:102905007C007D7D121DC1EF1FAC0670011E4C7051
:02291500F622A8
:1028EA00C2A8C2A2D2A1E4F580D2A0E5805480FF9A
:0628FA00C2A070F2D2A89A
:0129000022B4
:1028B800EF14600C14600E2402700EC2A4D2A3227E
:0A28C800D2A4C2A322C2A4C2A3221C
:08294100EC75F008A42440FF2E
:0D294900AE071228EAC2A8C2A2120E682230
:0D29BF00AE071228EAC2A8D2A2120E6822AA
:10284D007DB8AF051229497F40122949E4FCE4FF08
:0B285D001229BF0CBC40F70DBDC0E706
:01286800224D
:0D29CC001228EA7FC01229497F3F022949E5
:0226E8008D4B18
:1026EA00120EA8E54B33333354F8F54B120D1DEC9B
:1026FA00120CEDE4FD120CC0BD08FAE54B120D1DDB
:0B270A00120E737D08120CC0BD10FA07
:0127150022A1
:022612008D4BEE
:10261400120EA8E54B33333354F8F54B120D1DEC71
:10262400120CEDE4FDAB4DAA4EA94F120CC6BD1021
:10263400F4E54B120D1D120E737D10AB4DAA4EA97D
:072644004F120CC6BD20F48B
:01264B00226C
:0227C500AE075D
:1027C7001228EAC2AFEE120CEDED120D1DC2A8756C
:1027D70080FFD2A1D2A2D2A0C2A0D2A0AF80C2A0B5
:0227E700D2AF6F
:0127E90022CD
:04254E00AC07AA0527
:102552001228B8E4F9EB25E0120DD4740029F582B3
:10256200E43400F583EFF0EB25E004120DD474108F
:1025720029F582E43400F583EFF009B910D7AF04EE
:0E258200AD02754D01754E00754F0002261218
:041FD4007D3F7F03CB
:041FD800AA07A905A6
:101FDC00E4FDEBD3943F4007120E452BFB8005E448
:101FEC00FF1228B8E9120E27120EB26F70030220EE
:101FFC007FE4FCEA5407FFC374089FFEECC39E50B9
:10200C0013EF2CFF7402A807088002C333D8FC42DC
:10201C00050C80DF120D1CEA120CE8AF051229BF6B
:10202C00E4FDFCEA120E27E9131313541FC39F148B
:10203C00FFECC39F5015120D1C120EB224B92CFFCD
:10204C001229497FFF1229BF0C80D8E4FCE9540700
:10205C00FFECD39F50107402A804088002C333D83D
:10206C00FC42050C80E7120D1CE9120CE8ED440152
:10207C00FF8032E4FCC3E99AFFECD39F5015EA547D
:10208C00072CFF7402A807088002C333D8FC420552
:10209C000C80E2EB4440FF122949120EB244B8FF07
:0820AC00122949AF051229BFFA
:0120B4002209
:07276F002420FFEA2403FD12
:04277600AC07AB05FC
:10277A00ECD3943F4007120E452CFC8005E4FF126F
:10278A0028B8120C958002C333D8FC4DFF0229BF2A
:10218500E4F546E53275F00AA42533FFE534240568
:1021950075F00A842FF545C3943C5079C3743E9578
:1021A50045F545C3952350097B7C7D3FAF45121FFF
:1021B500D8E545D395234056E523120E27E545136B
:1021C5001313541FD39F400EEF120CED7F7C122981
:1021D50049E4FF1229BFE4FFE5455407FEC374082F
:1021E5009EFDEFC39D5015EE2FFE7402A8060880D4
:1021F50002C333D8FC2546F5460F80DCE545120CB5
:10220500E87F7C122949AF461229BF8545237D0306
:052215007F3C1227765A
:01221A0022A1
:04274300AC07AF032D
:102747001228B8122941ED120CEDE4FBE4FF12291F
:10275700BF0BBB08F7122941ED120E74E4FBE4FF2F
:072767001229BF0BBB10F7A4
:01276E002248
:0623A6008B488A49894AB8
:1023AC00121D47FFC39418504EAB4BAA4CA94D12AB
:1023BC001D47FEC3940F503FEF25E025E0F54E126C
:1023CC000DA2FAE4F9E54E120D89E54E2422120D08
:1023DC008B09B904F0E54E120DFEE54E120EB9E56F
:1023EC004E12276FE54E2421120E00E54E120E7A86
:0723FC00E54E2421122771B8
:0124030022B6
:1024AF00C2AFEFC394185046EDC3940F5040EF25C1
:1024BF00E025E0F54DED120DA3FAE4F9E54D120D0F
:1024CF0089E54D2422120D8B09B904F0E54D120D4B
:1024DF00FEE54D120EB9E54D12276FE54D24211281
:1024EF000E00E54D120E7AE54D2421122771D2AF61
:0124FF0022BA
:06279A002402FFE92AFD04
:0427A000AC07AB05D2
:1027A400ECD3943F4007120E452CFC8005E4FF1245
:1027B40028B8120C958002C333D8FCF45DFF0229BB
:0127C400BF55
:10268200121D47120E85F54EAB4BAA4CA94D121DD9
:1026920047120DA3F9E4FAE92AFDAF4E1227A0E58D
:1026A2004E0412279CE54E12279AE54E2403122768
:0526B2009C0ABA04E2DD
:0126B7002200
:10259000EFC39400403AEF94185035EDC3940040D7
:1025A0002FED940F502A120E84F54FED120DA3F962
:1025B000E4FAE92AFDAF4F1227A0E54F0412279C49
:1025C000E54F12279AE54F240312279C0ABA04E22A
:0125D00022E8
:02240400AE0523
:10240600C206C3EE648094804048120E84FD120D0D
:10241600A2FCE4FF1228B8EDD3943F400874C02D07
:10242600FD0F1228B8EC120E271227C5AD07EC5483
:1024360007FFBF020DED543CFEBE3C04D2068002EF
:10244600C206BF060DED54C0FFBFC004D20680020F
:04245600C206A20612
:01245A00225F
:03000B000226B812
:1026B800C0E0C0D075D008AF3E153EEF600A758AFD
:1026C80000758CA0C2028013D202758A00758C0036
:1026D800E53FC313FFC374149FF53ED0D0D0E0325A
:030013000229EED1
:0929EE00200303D20332C20332BC
:030003000225D102
:0425D100C0E0C0D0D6
:1025D500754000300132C201E5A0C413135403F560
:1025E5003D533D03300012E53DB40103753503E568
:1025F5003DB40214753501800FE53D700375350452
:08260500E53DB4030375350245
:05260D00D0D0D0E03246
:10232B008F4A8D4B8B4C120DAA900586120AF42501
:10233B004BFFC007EE75F004A4FFEF4D120BD83521
:10234B00F0120B73254CFDD0071224AF120DAA907F
:10235B000587120AF4254BFFC007EE75F004A4FFA6
:10236B00EF4D120E15120B73254CFDD00712239453
:10237B00EF4D2488F5827405120D43122394EF4D13
:10238B00120D3C120D430224AF1224AFE54A540F39
:0B239B0075F004A4FFE54A54F0FD2299
:04181800AC07A9056B
:10181C00C205120BC5120AF029F54A120D33120A31
:10182C00F029F54C120AD729F54D120D14120AF0B5
:10183C0029F54F120B582BF54E120D14120B722B5F
:10184C00F550EC120C49E9120BD2120B722BF54B22
:10185C00120D33120B722BFBE54A04FFAD4B122415
:10186C00045069AF4A120E06120C2CEDB5820FEC27
:10187C00B5830BE54BB54E067C007D0180047C00E6
:10188C007D00120C8D120C2AEFB5820FEEB5830B76
:10189C00E54BB503067E007F0180047E007F00EEE1
:1018AC004CFEEF4DAD4A120B8BE54F120C2CEDB5E7
:1018BC00820FECB5830BE54BB550067C007D0180A7
:1018CC00047C007D00120CD47002D205E54C04FFA0
:1018DC00AD031224045068AF4C120E06120C2CED02
:1018EC00B5820EECB5830AEBB54E067C007D01800B
:1018FC00047C007D00120C8DE54A120C2CEFB58295
:10190C000EEEB5830AEBB54B067E007F0180047E9C
:10191C00007F00EE4CFEEF4DAD4C120B8BE54F12E1
:10192C000C2CEDB5820EECB5830AEBB550067C00A1
:10193C007D0180047C007D00120CD47002D205E580
:10194C004D04FFAD4E1224045069AF4D120C1EED28
:10195C00B5820FECB5830BE54EB503067C007D011B
:10196C0080047C007D00120C8DE54A120C2CEFB526
:10197C00820FEEB5830BE54EB54B067E007F0180E2
:10198C00047E007F00EE4CFEEF4DFFAD4D120B8C34
:10199C00E54F120C2CEDB5820FECB5830BE54EB573
:1019AC0050067C007D0180047C007D00120CD470FC
:1019BC0002D205E54F04FFAD50122404506AAF4F1C
:1019CC00120C1EEDB5820FECB5830BE550B503067A
:1019DC007C007D0180047C007D00120C8DAB4AEBF9
:1019EC003395E0FAEFB5030FEEB5020BE550B54BAE
:1019FC00067E007F0180047E007F00EE4CFEEF4DE2
:101A0C00FFAD4F120B8CAB4D120B51B5030FECB558
:101A1C00020BE550B54E067C007D0180047C007DF8
:0A1A2C0000120CD47002D205A205CE
:011A3600228D
:02286900AB07BB
:10286B00D205E4FAAF03AD021224048205920530BF
:08287B0005040ABA0FEEA205E4
:012883002232
:02245B008F4AA6
:10245D00E4F54BAD4BAF4A122590054BE54BC394BC
:10246D000F40F0754B01E54BD3954A5034E4F54CD4
:10247D00C3E54A954BFFAD4C1224045017C3E54AF2
:10248D00954B04FFAD4C1224AFC3E54A954BFFAD00
:10249D004C122590054CE54CC3940F40D3054B8051
:0124AD00C569
:0124AE00220B
:041E3E00AC07A9053F
:101E4200C205120BC5120AF029F54A120D33120A05
:101E5200F029F54B120AD729F54C120D14120AF08B
:101E620029F54E120B582BF54D120D14120B722B35
:101E7200F54FEC120C49E9120BD2120B722BF9122C
:101E82000D33120B722BFBE914FDAF4A12240450DE
:101E920046E54AB54C0BE914B54D067E007F01803C
:101EA200047E007F00E54AB54B0BE914B503067CBE
:101EB200007D0180047C007D00120D23E54AB54EB1
:101EC2000BE914B54F067C007D0180047C007D0087
:101ED200120CD47002D205EB14FDAF4B1224045045
:101EE20046E54BB54C0BEB14B54D067E007F0180E9
:101EF200047E007F00E54BB54A0BEB14B501067C6E
:101F0200007D0180047C007D00120D23E54BB54E5F
:101F12000BEB14B54F067C007D0180047C007D0034
:101F2200120CD47002D205E54D14FDAF4C122404FC
:101F32005049E54CB54B0CE54D14B503067E007FC8
:101F42000180047E007F00E54CB54A0CE54D14B5D6
:101F520001067C007D0180047C007D00120D23E5DA
:101F62004CB54E0CE54D14B54F067C007D01800446
:101F72007C007D00120CD47002D205E54F14FDAF37
:101F82004E1224045049E54EB54B0CE54F14B503EF
:101F9200067E007F0180047E007F00E54EB54A0C7C
:101FA200E54F14B501067C007D0180047C007D00B4
:101FB200120D23E54EB54C0CE54F14B54D067C00D1
:101FC2007D0180047C007D00120CD47002D205A237
:011FD2000509
:011FD30022EB
:041A3700AC07A9054A
:101A3B00C205120BC5120AF029F54A120D33120A10
:101A4B00F029F54C120AD729F54D120D14120AF094
:101A5B0029F54F120B582BF54E120D14120B722B3E
:101A6B00F550EC120C49E9120BD2120B722BF54B01
:101A7B00120D33120B722BF9E54B04FDAF4A1224F6
:101A8B0004506AE54AB54D15AF4B120C88120E4D3A
:101A9B00B5050AEEB504067E007F0180047E007F4B
:101AAB0000E54AB54C19AD4B120B8CE9FB3395E0B5
:101ABB00FAEDB5030AECB502067C007D0180047CCF
:101ACB00007D00120D23E54AB54F17AD4B120B8C61
:101ADB00AB50120B51B5030AECB502067C007D012D
:101AEB0080047C007D00120CD47002D205E904FD49
:101AFB00AF4C1224045068E54CB54D15E9FF120CA0
:101B0B0089120E4DB5050AEEB504067E007F0180E5
:101B1B00047E007F00E54CB54A17E9FD120B8DAB37
:101B2B004B120B51B5030AECB502067C007D01800C
:101B3B00047C007D00120D23E54CB54F17E9FD1217
:101B4B000B8DAB50120B51B5030AECB502067C00A2
:101B5B007D0180047C007D00120CD47002D205E55F
:101B6B004E04FDAF4D1224045062E54DB54C19AF38
:101B7B004E120C88E9FD3395E0FCEFB5050AEEB586
:101B8B0004067E007F0180047E007F00E54DB54A90
:101B9B0012AB4B120B43B5030AECB502067C007D6E
:101BAB000180047C007D00120D23E54DB54F12AB77
:101BBB0050120B43B5030AECB502067C007D018085
:101BCB00047C007D00120CD47002D205E55004FD9C
:101BDB00AF4F122404506CE54FB54C19AF50120C9B
:101BEB0088E9FD3395E0FCEFB5050AEEB504067EFA
:101BFB00007F0180047E007F00E54FB54A17AD5092
:101C0B00120B8CAB4B120B51B5030AECB502067CD5
:101C1B00007D0180047C007D00120D23E54FB54D46
:101C2B0017AD50120B8CAB4E120B51B5030AECB522
:101C3B0002067C007D0180047C007D00120CD470B8
:051C4B0002D205A20514
:011C50002271
:062500008D4A8B4BAC0775
:10250600EC540F75F004A4FFEC54F0FDEF4D248657
:10251600F9740535F0FA7BFF8B4CF54D894E121D8B
:1025260047120BFC122590900001120BF312259016
:10253600900002120BF3122590AB4CAA4DA94E90B7
:082546000003120BF9022590BD
:10065E00E4F543754810C204120DE4F58AF58CD208
:10066E008C753D057F021228B812284D120EC2E479
:10067E00FBFD120AAD754E04754FA67B01120A756D
:10068E00754E04754FC67B02120A75754E04754F72
:10069E00E6E4FB7D02120AAD754E05754F06120D8E
:1006AE0082122612120DF47B03E4FDFF1226E812CD
:1006BE000DF4120AA37B1E120E567B7F120E56E409
:1006CE00FAEA120DCCEA7D3E120DCE0ABA62F2752E
:1006DE0044077545FDE5B030E202D201E53D640206
:1006EE00702BE5B030E226120E2E121E3E92042022
:1006FE000418120B7A120E1E120B7325446002158B
:10070E0044120A4F12232B854446753D05E53D6480
:10071E00017037E5B030E232120E2E121A37920403
:10072E00200427120B7A120D3C35F0120B73120CAB
:10073E0053D3EF940DEE6480948050020544753DC2
:10074E0005120A4F12232B854446E53DB4030BE5F3
:10075E00B030E206753F24753D05E53D7071E5B09C
:03076E0030E26C0A
:10077100753D058548490548E548540FC394044033
:10078100035348F0120B7A120D3C35F0120B731221
:100791000C53120ECC40151544120B7A120D3C3538
:1007A100F0120B73120C53120ECC50EB120B7A1287
:1007B1000E1E120B73FFAD44120E4F2DE43CC364A9
:1007C100809480500F0544120B7A120E1E120B7387
:0C07D100254470F1AF49120A7F12232B5F
:1007DD00120E3112181892042003FD3002158545B2
:1007ED00478544460545AF48120A7F12232B8545A0
:1007FD0047C202120B34900587120AF4FFFDE5453E
:10080D00FB3395E0FAED2BFDE43AFCD3ED9416ECB9
:10081D006480948040047E0180027E00A204E43353
:06082D004E70030206E319
:10083300E4F549E5452FFF1228695013120B349054
:100843000587120AF42545FF12245B054305491267
:100853000C47120B83120D3B120AF0FDAB45120B32
:10086300512BFDE43AFC74882F120AECF9120B9910
:100873005003020911120B7A120E15120AF1AD453B
:10088300120C55E9FD120B51120DBB5017120B340C
:10089300900588120AF4120A6C5009120B34120ADA
:1008A300F4120A42120C47120B83120AE9FDAB45FC
:1008B300120B512BFDE43AFC120D14120AF0120B29
:1008C300995017120B34900589120AF4120A6C50CE
:1008D30009120B34120AF4120A42120C47120B8348
:1008E300120D3B120AF0FDAB45120B51120E3812DA
:1008F3000AF0120B995017120B34900586120AF462
:10090300120A8D5009120B34120AF4120A5F120CE8
:1009130047120B83120D3B120AF0F9FDAB45120B84
:10092300512BFDE43AFC74882F120AEC120B994008
:10093300030209B9120B7A120E15120AF1FFAD4523
:10094300120C56E9FD120B51120DBB5017120B344A
:10095300900589120AF4120A8D5009120B34120AF7
:10096300F4120A5F120B34900588120AF425452508
:1009730049FF1228695009120B34120AF4120A961D
:10098300120C47120B83120AE9FDAB45120B5112ED
:100993000E38120AF0120B99501C120B3490058674
:1009A300120AF425452549FF1228695009120B3410
:1009B300120AF4120A96E54375F00A84120C121215
:1009C3000ACF7B03E4FDFF1226E8E543120C0C1269
:1009D3000ACF120AA3E54375F00584F53F120B34E1
:1009E300900586120AF4FFAD45120C56C3EF94012D
:1009F300EE648094805025120C62122612120ED6D9
:100A0300120CE1122612120D59122612120D69123E
:100A130026121229017FC27E01022905E58A75F09B
:100A23000784AFF0EFC454F0FFE58C54034FF5484F
:0C0A33007544077545FD7547F77546F7DB
:030A3F000206E3C9
:100A420025452549FF12245B0543054922AB46ADE6
:100A520047AF48122500AB44AD45AF482225452596
:100A620049FF12245B054305492225452549FF120A
:100A7200286922E4FDFF122612754DFF22AB46AD16
:100A820047122500AB44AD45AF482225452549FF15
:100A92001228692225452549FF12245B0543054991
:100AA200227B037D01E4FF1226E822FF1226127543
:030AB2004DFF22D3
:100EFE00E4F544F53D7F021228B81229CC12284D94
:100F0E00754DFF754E00754F36E4FBFDFF1226E85A
:100F1E00120DF47D011212D71212A91212BB121267
:100F2E008E120D79122612120EE0120CE1122612FA
:100F3E00754DFF754E02754F16120D721226121256
:100F4E00126812127E7B7F121FD47B7E121FD47BFF
:100F5E007A121FD47B79121FD4E4F543E54324792A
:100F6E00FF7D03122776E5432479FF7D3F12277616
:100F7E000543E543C3940740E3E4F543E54375F0C9
:100F8E0005A42408FD7F7B1227760543E543C39411
:100F9E000C40E9E4F543E543C39404500CE54312D9
:100FAE000CF37B03E4FF122612E543C39404400EB8
:100FBE00E54324FC120CF37B037F0112261205433A
:100FCE00E543C3940740CF12298E12264CC203E587
:100FDE00B030E202D20112298E7B007A00793612ED
:100FEE0020B5AF25120AB5E47D02FF1226E8AF2622
:100FFE00120AB57D031212D7AF27120AB5E4FB7D94
:10100E0006FF1226E8AF28120AB5E4FB7D07FF1291
:10101E0026E8AF29120AB5E4FB7D027F011226E80D
:10102E00AF2A120AB5E4FB7D037F011226E8AF2B2F
:10103E00120AB5E4FD1212DEAF2C120AB57D01E4E0
:10104E001212DEAF2D120AB5120C811226E8AF2E47
:10105E00120AB57B017D05E4FF1226E8AF2F120AB6
:10106E00B5120D621226E8AF30120AB57B017D0172
:10107E007F011226E8AF31EF3395E0FEEF24FEFF3D
:10108E00EE34FFFEEF7805C333CE33CED8F924A667
:10109E00F974033E120D037B027D047F01122612AA
:1010AE00122716E5246010120EEA7B02E4FDFF12F1
:1010BE0026E8120EEA8012E4FB7D047F0612274317
:1010CE00754DFF754E04754F767B037D067F0112BD
:1010DE0026E8E5242404FD754DFF754E03754F5625
:1010EE001212A1E5242405FD754DFF754E03754FB3
:1010FE00661212A1E532120C12120ACF7B02AD2437
:10110E00E4FF1226E8E52404FDE533120C12120A60
:10111E00CF1212CD2402FD754DFF754E03754F761D
:10112E001212CD2403FDE534120C12120ACF7B02EB
:10113E00E4FF1226E81221857D037F7C122776E5D7
:10114E003D640260030211E7E5B020E2030211E7FD
:10115E000544E544B40703E4F544E544B407005000
:10116E0075901176F828287302118B0211940211D2
:10117E009F0211A70211B00211B90211C712126813
:10118E0012127E0211E4E4FB7D04FF12254E0211C1
:10119E00E41212A9E4FBFD80361212BBE4FB7D04BF
:1011AE00802D12128E7B017D02800A120D7912267D
:1011BE00127B017D06E4FF8018120EE0120CE11284
:1011CE0026127B02E4FD7F0112254E7B027D027FFB
:1011DE000112254E8000E4F53DE53D64037037E5D0
:1011EE00B030E232E54424FE60141460151460162B
:1011FE001460171460182405701C7F8C80127F8871
:10120E00800E7F86800A7F8480067F8280027F8A9E
:10121E0012289EE4F53DE53D64017037E5B030E2FD
:10122E0032E54424FE601414601514601614601721
:10123E001460182405701C7F8C80127F88800E7FAE
:10124E0086800A7F8480067F8280027F8A1228D25F
:09125E00E4F53D200303020FDD5D
:1012670022754DFF754E02754F367B02E4FD7F01F7
:10127700122612754DFF22754E02754F567B027D61
:10128700027F0112261222754DFF754E03754F8698
:10129700E4FB7D047F01122612227B02E4FF122663
:1012A700E822754DFF754E01754F96E4FB7D04FFEF
:1012B70012261222754DFF754E01754FB6E4FBFDE0
:1012C7007F01122612227B02E4FF1226E8E5242280
:0E12D700E4FBFF1226E8227B01FF1226E8222C
:1012E50078007C007D017BFF7A0579F67E007F66BC
:1012F500121D2178437C007D007BFF7A06795C7E98
:10130500007F02121D21120DE4E4F58AF58CD28CC2
:10131500753F02753E14753501C2037F021228B868
:1013250012284D7B1E7D3D7F01121FD87B7F7D3DA1
:101335007F01121FD8E4F545E545120DCCE545249E
:101345001EFF7D3E1227760545E545C3946240E8BC
:10135500120EF4E4FB1215C5754E01754F567B014F
:10136500E41215C5754E01754F767B02E4FDFF123B
:101375002612754B01754C00754D017B017A00797C
:10138500001223A6754B01754C00754D037B017A40
:101395000079021223A61215B2D201A203A00240BF
:1013A500FA900000E0F546A3E0F547E53524FE6038
:1013B500201460331460482403705AE4F545120D77
:1013C5000B5007120AFB054580F4120BB1040213FA
:1013D500FFE4F545120D0B5007120AFB054580F495
:1013E500120BDF04021417E4F545120D0B5007121A
:1013F5000AFB054580F4120BB114F0C2008016E417
:10140500F545120D0B5007120AFB054580F4120B2A
:10141500DF14F0D200120BB1B54309120BE7B54446
:1014250003D38001C39206300676853F45E545D353
:1014350094004019E545120BB3FD120E8CEDF074C6
:10144500FF2FF58274FF120B22154580E0900000F6
:10145500E546F0A3E547F0053FC205E58A75F018B6
:101465008485F043E58A75F00F8485F044E4F545FD
:10147500120D0B5025E54525E0FFE433FE120E8CD9
:10148500E0B5431274012FF58274003EF583E0B593
:101495004404D2058004054580D62005BC1215B24A
:1014A500D204E4F545120D0B5034120BB1FDE545A0
:1014B50025E0FBE433FA74002BF58274003AF583DA
:1014C500E0B50516120BDFFF74012BF58274003AA7
:1014D500F583E0B50704C2048004054580C73004E0
:1014E50010120BB1FFC394004007EF94185002800F
:1014F50001C39204300410120BDFFFC394004007B0
:10150500EF940F50028001C39204300478754B00AC
:10151500754C00754D477B007A007946122682E5A9
:101525003F25E0FFE433FE74FE2FF974FF3EFA7B9E
:1015350001C003C00174FF2FF974FF3E8B4BF54CBE
:10154500894DD001D0031223A6300612754B0075C4
:101555004C00754D477B007A0079461223A6C202DE
:10156500E53F75F00A84120C12120ACF7B03E4FDE5
:10157500FF1226E8E53F120C0C120ACF7B037D0112
:10158500E4FF1226E830040302139E120C621226B1
:1015950012120ED6120CE1122612120D5912261233
:0C15A500120D69122612122901122901F0
:1015B10022754B00754C00754D447B007A007943D0
:0D15C1001223A622FDFF122612754DFF22F7
:1015CE00E4F54275A0FFD2AFD2A8D2AA12174812E4
:1015DE000CDB1218111217C440FB12179C1217ECD9
:1015EE00E53D640360030216B0E5B020E203021687
:1015FE00B00542E4F53DE542B40403754201E5420F
:10160E0024FE6025146069240260030216B01217CE
:10161E009C1217ECE4FB7D04FF12254EE4FB7D06C5
:10162E00FF12254EE4FB0216AA120EF47D041218C8
:10163E0007754E01754F567D06121807754E0175CA
:10164E004F76E4FBFD7F01122612120C8112254EFD
:10165E00120CE112254EE4F541E54125E0FD7B013A
:10166E007F0112254E0541E541C3940340EB8032C4
:10167E00120EC2120C81122612754DFF120CDB12C5
:10168E0018111217C440FB7B027D04E4FF12254E95
:10169E007B027D06E4FF12254E7B02E4FD7F0112E4
:1016AE00254EE5B030E202D2012003030215EEE52D
:1016BE004224FE600E1460122402701CC203121229
:1016CE00E5800CC20312065E8005C203120EFEE414
:1016DE00F542C203F53D8008E4F542753D03C203B1
:1016EE00121748120CDB122612E4F541E54125E0F3
:1016FE00FDE54175F020A424C6F97404120D017B9A
:10170E00017F011226120541E541C3940340DD75A8
:10171E004DFF754E05754F267D041217FC754E054F
:10172E00754F467D061217FC754E05754F667B028A
:0A173E00E4FD7F011226120215EEF1
:101748007F021228B81229CC12284D754DFF754E0C
:1017580001754F36E4FB7D04FF122612754DFF75A7
:101768004E01754F56E4FB7D06FF122612754DFF9C
:10177800754E01754F76E4FBFD7F01122612754DFB
:10178800FF754E04754F867B017D04E4FF12261217
:10179800754DFF22754DFF754E05754F267B027DF1
:1017A80004E4FF122612754DFF754E05754F467BF2
:1017B800027D06E4FF122612754DFF22E54125E061
:1017C800FDE54175F020A424C6F9740435F0754D83
:1017D800FFF54E894F7B017F011226120541E54135
:1017E800C3940322754E05754F667B02E4FD7F01A5
:1017F800122612227B02E4FF122612754DFF22E404
:10180800FBFF122612754DFF22122612E4F5412223
:0300000002221BBE
:0C221B00787FE4F6D8FD75815002226245
:101C5100E709F608DFFA8046E709F208DFFA803E75
:101C610088828C83E709F0A3DFFA8032E309F60862
:101C7100DFFA8078E309F208DFFA807088828C83CA
:101C8100E309F0A3DFFA806489828A83E0A3F6087E
:101C9100DFFA805889828A83E0A3F208DFFA804C58
:101CA10080D280FA80C680D4806980F2803380102F
:101CB10080A680EA809A80A880DA80E280CA803398
:101CC10089828A83ECFAE493A3C8C582C8CCC58310
:101CD100CCF0A3C8C582C8CCC583CCDFE9DEE780E0
:101CE1000D89828A83E493A3F608DFF9ECFAA9F05F
:101CF100EDFB2289828A83ECFAE0A3C8C582C8CCB5
:101D0100C583CCF0A3C8C582C8CCC583CCDFEADECD
:101D1100E880DB89828A83E493A3F208DFF980CC2F
:101D210088F0EF60010E4E60C388F0ED2402B40428
:101D31000050B9F582EB2402B4040050AF232345CF
:061D41008223901CA17337
:101D4700BB010689828A83E0225002E722BBFE029A
:091D5700E32289828A83E49322CD
:101D6000BB010CE58229F582E5833AF583E0225038
:101D700006E92582F8E622BBFE06E92582F8E22282
:0D1D8000E58229F582E5833AF583E493229C
:101D8D00BB010689828A83F0225002F722BBFE0135
:021D9D00F3222F
:101D9F00F8BB010DE58229F582E5833AF583E8F07A
:101DAF00225006E92582C8F622BBFE05E92582C826
:021DBF00F2220E
:101DC100EF8DF0A4A8F0CF8CF0A428CE8DF0A42E36
:021DD100FE22F0
:101DD300BC000BBE0029EF8DF084FFADF022E4CCF4
:101DE300F875F008EF2FFFEE33FEEC33FCEE9DECBD
:101DF300984005FCEE9DFE0FD5F0E9E4CEFD22ED03
:101E0300F8F5F0EE8420D21CFEADF075F008EF2F4C
:101E1300FFED33FD4007985006D5F0F222C398FD3D
:051E23000FD5F0EA22DA
:101E2800EB9FF5F0EA9E42F0E99D42F0EC6480C831
:061E380064809845F022D1
:102227000215CEE493A3F8E493A34003F68001F2EA
:1022370008DFF48029E493A3F85407240CC8C333B8
:10224700C4540F4420C8834004F456800146F6DF87
:10225700E4800B010204081020408090299FE47E4F
:10226700019360BCA3FF543F30E509541FFEE4937C
:10227700A360010ECF54C025E060A840B8E493A343
:10228700FAE493A3F8E493A3C8C582C8CAC583CA6E
:10229700F0A3C8C582C8CAC583CADFE9DEE780BE26
:0129AF000027
:00000001FF
