:030000000200FFFC
:0C00FF00787FE4F6D8FD75811002014600
:0C029900C0F9A4B0999282F88090FFBFD9
:10028800010D0001090A010E00020B000001080A15
:0702220093F5807F017E00CF
:10022900EF1FAA0670011E4A600BE4FDEDC3947B23
:0502390050EE0D80F7FE
:01023E00229D
:10025A00E50975F00A8475F00A8485F00BE50975DD
:07026A00F00A8485F00C226C
:10027100E50875F00A8475F00A8485F00BE50875C8
:07028100F00A8485F00C2255
:10023F00D2B2C2B3E50B900299120222C2B27580FC
:0B024F00FFD2B3E50C120222C2B32262
:0C000E0075080A7590FFE4F509F50A2258
:03001B0002018B54
:10018B00C0E0C0F0C083C082C0D075D000C002C038
:10019B0005C006C007758D3C758BB0E50A64017010
:1001AB003D050EE50EB414047F0180027F00E509C6
:1001BB00D3940040047E0180027E00EE5FFFE50DCC
:1001CB0070047E0180027E00EE5F6005750E0015E7
:1001DB0009E50DB40105120271800312025A1202D5
:1001EB003FD007D006D005D002D0D0D082D083D05C
:0401FB00F0D0E0322E
:03000B000201FFF0
:0401FF00C0E0C0D0CC
:10020300758CEC758A78E50FB4010F0510B2B7E56C
:0A02130010B46406751000750F00AA
:05021D00D0D0D0E0325A
:10001E00758911758CEC758A78758D3C758BB0D29F
:10002E00AFD2A9D2ABD28ED28CE5A0540F640F60A2
:10003E0003750F0120B0F27F327E0012022920B02C
:10004E00E875090AE4F50E750A0130B0FD20B10419
:10005E007F0180027F00E50DB401047E0180027EE7
:10006E0000EE5F600B12000E12025AE4F50D80B91D
:10007E00E5097005750D0180ECE50D70047F0180BA
:10008E00027F00E509D3940040047E0180027E00C9
:10009E00EE5F602CAFA0EF2409601A24FC601124DF
:1000AE00FE6008147017750801800D75080280082F
:1000BE007508038003750804750D01800375080B20
:1000CE00E50D64017087E50824FE601314601614B4
:1000DE0060192403600302005B7590FE02005B75DD
:1000EE0090FD02005B7590FB02005B7590F70200BD
:0100FE005BA6
:10010B0002001EE493A3F8E493A34003F68001F2EC
:10011B0008DFF48029E493A3F85407240CC8C333F5
:10012B00C4540F4420C8834004F456800146F6DFC4
:10013B00E4800B0102040810204080900288E47ECA
:10014B00019360BCA3FF543F30E509541FFEE493B9
:10015B00A360010ECF54C025E060A840B8E493A380
:10016B00FAE493A3F8E493A3C8C582C8CAC583CAAB
:10017B00F0A3C8C582C8CAC583CADFE9DEE780BE63
:010298000065
:00000001FF
