:030000000202F603
:0C02F600787FE4F6D8FD75813902033DE5
:1003B9003F065B4F666D7D077F6F777C395E79718C
:0103C9000033
:1003A2000236000010210010001000100010001092
:0603B20000100010001015
:10038200D3EF9400EE6480948040147D6E7C00ED87
:0F0392001D70011CED4C70F7EF1F70E41E80E131
:0103A1002239
:0F03CA00E4F589758CE0758A1875A88AD28C22A3
:10018900E4F53175A0F07F01FE12038285A0315399
:1001990031F0E531C4540F44F0F4F531B40105E40C
:1001A900F5328021E531B402057532018017E53158
:1001B900B40405753202800DE531B40805753203C2
:1001C900800375321075A00F7F017E0012038285AE
:1001D900A03153310FE53144F0F4F531B40105850F
:1001E90032328022E531B4020474048010E531B45E
:1001F900040474088007E531B40808740C2532F545
:10020900328003753210853235E53564106013C3C9
:10021900E5349403E533940050080534E53470025D
:100229000533E535641070030202E9300003020268
:10023900E9C3E5349402E533940050030202E9D29C
:1002490000E53570057535018076E535B40105752C
:100259003502806CE535B402057535038062E535F4
:10026900B4030575350A8058E535B4070575350BAE
:10027900804EE535B408057535078044E535B40980
:1002890005753508803AE535B40A057535098030B4
:10029900E535B40B0575350C8026E535B40C0575C7
:1002A900350E801CE535B40D05E4F5358012E535CC
:1002B900B40E0575350F8008E535B40F0375350D96
:1002C9007F07EF25E0241FF8E6FC08E6FDEF25E0AF
:1002D9002421F8A60408A605DFE875210085352242
:0C02E900E535B41007C200E4F533F5342D
:0102F50022E6
:080003001203CA12018980FBFF
:03000B0002000EE2
:10000E00C0E0C083C082C0D075D000C000758CE047
:10001E00758A180537E53770020536D39402E53632
:10002E009400500302017E7536007537000539E5E0
:10003E003970020538D297D296D295D294D293D2F5
:10004E0092D291D290D39407E53894004006753839
:10005E0000753900E53945387015E53925E024215C
:10006E00F808E69003B993F5B0C290D291801BE5E3
:10007E0039640145387017E53925E02421F808E682
:10008E009003B993F5B0D290C291D292801DE5390A
:10009E00640245387019E53925E02421F808E69008
:1000AE0003B993F5B0D290D291C292D293801FE54C
:1000BE003964034538701BE53925E02421F808E63C
:1000CE009003B993F5B0D290D291D292C293D294BA
:1000DE008021E53964044538701DE53925E0242179
:1000EE00F808E69003B993F5B0D290D291D292D29D
:1000FE0093C294D2958023E539640545387021E585
:10010E003925E02421F808E69003B993F5B0D29092
:10011E00D291D292D293D294C295D296D297805047
:10012E00E539640645387021E53925E02421F808C3
:10013E00E69003B993F5B0D290D291D292D293D2E7
:10014E0094D295C296D2978027E5396407453870C8
:10015E001FE53925E02421F808E69003B993F5B0A0
:10016E00D290D291D292D293D294D295D296C29765
:0B017E00D000D0D0D082D083D0E0327F
:10030200020003E493A3F8E493A34003F68001F20E
:1003120008DFF48029E493A3F85407240CC8C333FC
:10032200C4540F4420C8834004F456800146F6DFCB
:10033200E4800B01020408102040809003A2E47EB6
:10034200019360BCA3FF543F30E509541FFEE493C0
:10035200A360010ECF54C025E060A840B8E493A387
:10036200FAE493A3F8E493A3C8C582C8CAC583CAB2
:10037200F0A3C8C582C8CAC583CADFE9DEE780BE6A
:0103B8000044
:00000001FF
