:100CF0001F1C1F1E1F1E1F1F1E1F1E1FE0E1E2E301
:100D0000E4E5E6E7E8E9EAEBECEDEEEFF8F9FAFB0B
:0D0D1000FCFDBF86DBCFE6EDFDA7FFEFC0C9
:100CC200161D0000000000000000000000000000EF
:100CD20000000000000000000118000116000117CA
:0D0CE200000511091404140103190B080A80
:100B1F00758901758A18758CFC75A8827588107592
:100B2F0090FFE590F5185480F5106037248070EF32
:100B3F00E5182441602324E0601D24F0601724F899
:100B4F00601124FC600B24FE600514700E803D8044
:100B5F003B80398037803580338031D2AFD28CC221
:100B6F00A880BCE51824C1602324E0601D24F06038
:100B7F001724F8601124FC600B24FE600514701418
:100B8F00800A80088006800480028000D2AFD2A83D
:0C0B9F00D288808BD2AFD28CC2A8808399
:03000300020800F0
:0D080000C0E0C0F0C083C082C0D075D00041
:10080D00851833E51070030208D6248060030209B1
:10081D009CE533244170030208BC24E070030208F8
:10082D00AD24F0604E24F8603B24FC602824FE606B
:10083D0015146003020996051BE51BC3943C40305B
:10084D00751B00020991051AE51AC3943C40037506
:10085D001A000209910519E519C394184003751979
:10086D00000209910515E515C3940840037515019E
:10087D000209910514120C8C8F34E534B4010EE588
:10088D0013B40209E514C3941E4012800DE51390B4
:10089D000CEF93FFE514D39F4003751401020991EA
:1008AD000513E513C3940D4003751301020991055A
:1008BD0011E511C39464400E7511000512E51294F3
:1008CD00644003751200020991E53324C1700302DF
:1008DD00098124E0700302097124F0605324F8604B
:1008ED003F24FC602B24FE6017146003020996E57B
:1008FD001BD394004004151B8003751B3B0209910B
:10090D00E51AD394004004151A8003751A3B8074C0
:10091D00E519D394004004151980037519178064E7
:10092D00E515D39401400415158003751507805402
:10093D00120C8C8F34E534B40115E513B40210E5B7
:10094D0014D3940140041514801875141D8013E5FB
:10095D0014D39401400415148008E513900CEF9303
:10096D00F5148020E513D39401400415138003750D
:10097D00130C8010E511D3940040041511800575FA
:0F098D00116315121209A78006D2AFD28CC2A82F
:0B099C00D0D0D082D083D0F0D0E03269
:03000B00020A6A7C
:0D0A6A00C0E0C0F0C083C082C0D075D008CD
:100A7700758A18758CFCD28C0517E51764236003FB
:100A8700020B11F517051BE51BC3943C407C751B36
:100A970000051AE51A943C4071751A000519E51905
:100AA7009418406675190005150514E51594084056
:100AB70003751501120C8CBF0113E513B4020EE583
:100AC70014C3941E40447514010513803DE513902B
:100AD7000CEF932401FFE433FEC3E5149FEE64801B
:100AE700F874809840247514010513E513940D409C
:100AF700197513010511E5119464400E7511000570
:0D0B070012E512946440037512001209A754
:0B0B1400D0D0D082D083D0F0D0E032EF
:100D1D00E4FEEED39F5009E4FD0DBD29FC0E80F2DB
:010D2D0022A3
:040C8C00AD11AF12E5
:100C9000EF75F064A42DFF54036004E4FB8020EFA3
:100CA00075F06484E5F060047B0180137E007C01B4
:100CB0007D90120C37ED4C6004E4FB80027B01AFA9
:010CC0000330
:010CC1002210
:1009A700E51B75F00A8485F01DE51B75F00A84F5D3
:1009B7001E751F0AE51A75F00A8485F020E51A7579
:1009C700F00A84F52175220AE51975F00A8485F085
:1009D70023E51975F00A84F524E51575F00A848571
:1009E700F025E51575F00A84F52675270AE51475CF
:1009F700F00A8485F028E51475F00A84F529752A2C
:100A07000AE51375F00A8485F02BE51375F00A845F
:100A1700F52C752D0AE51175F00A8485F02EE51180
:100A270075F00A84F52FE51275F00A8485F030E534
:100A37001275F00A84F53175320AE4F51C741D2528
:100A47001CF8E6900D1293F580E51C900CFC93F5CD
:100A5700A07F08120D1D75A0FF051CE51CD394157A
:030A670040DB224F
:03000000020BAB45
:0C0BAB00787FE4F6D8FD758134020BF26F
:100C3700BC000BBE0029EF8DF084FFADF022E4CCA1
:100C4700F875F008EF2FFFEE33FEEC33FCEE9DEC6A
:100C5700984005FCEE9DFE0FD5F0E9E4CEFD22EDB0
:100C6700F8F5F0EE8420D21CFEADF075F008EF2FFA
:100C7700FFED33FD4007985006D5F0F222C398FDEB
:050C87000FD5F0EA2288
:100BB700020B1FE493A3F8E493A34003F68001F22A
:100BC70008DFF48029E493A3F85407240CC8C3333F
:100BD700C4540F4420C8834004F456800146F6DF0E
:100BE700E4800B0102040810204080900CC2E47ED0
:100BF700019360BCA3FF543F30E509541FFEE49303
:100C0700A360010ECF54C025E060A840B8E493A3C9
:100C1700FAE493A3F8E493A3C8C582C8CAC583CAF4
:100C2700F0A3C8C582C8CAC583CADFE9DEE780BEAC
:010CEF000004
:00000001FF
