:0300000002089A59
:0C089A00787FE4F6D8FD75813D0208E18E
:1009DF00012A01012900082B01060003020100066C
:1009EF00083301060003020100070809010600038E
:1009FF000201010710113F065B4F666D7D077F6790
:100A0F00777C395E79710821FEFDFBF7EFDFBF7F41
:10080000E4F53B759850F587758921758BF3758DE7
:10081000F3D28E758CD8758AF0D28CD2A9D2A8D298
:10082000AFD2ACE52A64017021F53BD2A774212533
:100830003BF8E6F580C2A77580FFD2A6742B120A9A
:1008400053053BE53BC3940840E1E52A640270216F
:10085000F53BD2A77421253BF8E6F580C2A7758049
:10086000FFD2A67433120A53053BE53BC3940840FC
:10087000E1E52A640370ACF53BE53BC3940850A363
:10088000D2A77421253BF8E6F580C2A77580FFD278
:0A089000A67409120A53053B80DF2D
:0300030002098966
:10098900C0E0C0F0C083C082C0D075D000C000C034
:1009990001C002C003C004C005C006C00720B21BC5
:1009A9007F0A7E00120A6620B211052AE52AD3942D
:1009B900034003752A01AF2A120A20D007D006D0B6
:1009C90005D004D003D002D001D000D0D0D082D03D
:0609D90083D0F0D0E032F3
:03000B00020A8462
:040A8400C0E0C0D03E
:100A8800758CD8758AF00508D3E508648094B2405F
:060A980005B2A375080081
:050A9E00D0D0D0E032D1
:03002300020926A9
:10092600C0E0C0F0C083C082C0D075D000C000C097
:1009360001C002C003C004C005C006C00730982627
:10094600C298859929E52924CE600C14600E2402EC
:100956007016752A018008752A028003752A03AF6E
:100966002A120A208002C299D007D006D005D004E8
:10097600D003D002D001D000D0D0D082D083D0F026
:03098600D0E0328C
:100A20008F3DE53DB4010BC2A07FF47E01120A6642
:100A3000D2A0E53DB4020BC2A17FF47E01120A668A
:100A4000D2A1E53DB4030BC2A27FF47E01120A6677
:030A5000D2A2220D
:100A5300253BF8E62411F8E6F580C2A67580FF7FF2
:030A6300027E0010
:100A6600D3EF9400EE940040147D6E7C00ED1D7073
:0D0A7600011CED4C70F7EF1F70E61E80E3D1
:010A83002250
:1008A600020800E493A3F8E493A34003F68001F260
:1008B60008DFF48029E493A3F85407240CC8C33353
:1008C600C4540F4420C8834004F456800146F6DF22
:1008D600E4800B01020408102040809009DFE47ECA
:1008E600019360BCA3FF543F30E509541FFEE49317
:1008F600A360010ECF54C025E060A840B8E493A3DE
:10090600FAE493A3F8E493A3C8C582C8CAC583CA08
:10091600F0A3C8C582C8CAC583CADFE9DEE780BEC0
:010A1F0000D6
:00000001FF
