:100336007590FED2B7D2B6D2B32094037F012220A5
:1003460095037F02222096037F03222097037F04D2
:100356002220B6037F052220B7037F06227590FD73
:100366002094037F0B222095037F0C222096037F87
:100376000D222097037F0E2220B6037F0F2220B77F
:10038600037F10227590FB2094037F15222095038E
:100396007F16222096037F17222097037F1822209C
:1003A600B6037F192220B7037F1A227590F720948F
:1003B600037F1F222095037F20222096037F212280
:1003C6002097037F222220B6037F232220B7037FB4
:1003D60024227590FFC2B32094037F29222095031F
:1003E6007F2A222096037F2B222097037F2C222010
:0E03F600B6037F2D2220B7037F2E227F002228
:1001DF00E4F50AF50BF50EC200D2B4D2AF75891152
:1001EF00D2A97590FF758CFF758AE6D28C7508FFC2
:1001FF007509FF1203368F0FE50FB401057F121239
:10020F00000EE50FB40B057F0B12000EE50F6419FE
:10021F006005E50FB423057F1A12000EE50FB40F2A
:10022F00057F1E12000EE50FB406057F0E12000E9D
:10023F00E50FB410057F1D12000EE50FB41A057FF0
:10024F001F12000EE50FB424057F1B12000EE50FE1
:10025F00B42005E4FF12000EE50FB416057F01125E
:10026F00000EE50FB417057F0212000EE50FB4184C
:10027F00057F0312000EE50FB40C057F0412000E6C
:10028F00E50FB40D057F0512000EE50FB40E057FC7
:10029F000612000EE50FB402057F0712000EE50FE0
:1002AF00B403057F0812000EE50FB404057F091291
:1002BF00000EE50FB415057F2A12000EE50FB405E9
:1002CF00057F2B12000EE50FB421057F2C12000EB7
:1002DF00E50FB422057F2D12000EE50FB41F057F29
:1002EF002E12000EE50FB429057F2F12000EE50F19
:1002FF00B42A057F3012000EE50FB42B057F3112A3
:10030F00000EE50FB42C057F3212000EE50FB42D51
:10031F00057F3312000EE50F642E60030202027F89
:07032F003412000E0202026D
:03000B00020421CB
:10042100C0E0758CFF758AE6050BE50B7002050AC5
:03043100D0E032E6
:10000E00AE07750C00750DDF750E01E4F50AF50BE4
:10001E00C2B4C3E50B950DE50A950C40F5750C00C1
:10002E00750D75E4F50EF50AF50BD2B4C3E50B9517
:10003E000DE50A950C40F5AE08E4FDFC750C007557
:10004E000D0A750E01E4F50AF50BC2B4C3E50B9566
:10005E000DE50A950C40F5EEA2E71325E0FBC3EE85
:10006E009B6008750C00750D0F8006750C00750DE4
:10007E0029E4F50EF50AF50BD2B4C3E50B950DE5A3
:10008E000A950C40F5EEA2E713FE0DBD00010CED36
:10009E0064084C70A7AE09E4FCFD750C00750D0AE2
:1000AE00750E01E4F50AF50BC2B4C3E50B950DE52B
:1000BE000A950C40F5EEA2E71325E0FBC3EE9B601C
:1000CE0008750C00750D0F8006750C00750D29E472
:1000DE00F50EF50AF50BD2B4C3E50B950DE50A95B1
:1000EE000C40F5EEA2E713FE0DBD00010CED640809
:1000FE004C70A7EFF4FEE4FCFD750C00750D0A754F
:10010E000E01E4F50AF50BC2B4C3E50B950DE50A35
:10011E00950C40F5EEA2E71325E0FBC3EE9B6008BD
:10012E00750C00750D0F8006750C00750D29E4F524
:10013E000EF50AF50BD2B4C3E50B950DE50A950C39
:10014E0040F5EEA2E713FE0DBD00010CED64084C68
:10015E0070A7AE07E4FCFD750C00750D0A750E0157
:10016E00E4F50AF50BC2B4C3E50B950DE50A950C43
:10017E0040F5EEA2E71325E0FFC3EE9F6008750C75
:10018E0000750D0F8006750C00750D29E4F50EF542
:10019E000AF50BD2B4C3E50B950DE50A950C40F5A7
:1001AE00EEA2E713FE0DBD00010CED64084C70A726
:1001BE00750C00750D0A750E01E4F50AF50BC2B447
:1001CE00C3E50B950DE50A950C40F5D2B4E4F50E9A
:0101DE0022FE
:10040400E4FFFEE4FDFC0DBD00010CED64644C70E2
:0C041400F50FBF00010EBE01EABF90E72B
:0104200022B9
:03000000020434C3
:0C043400787FE4F6D8FD7581200201DF1E
:00000001FF
