:03000000020003F8
:0C000300787FE4F6D8FD758113020086BA
:0A000F00C0F9A4B0999282F8809025
:07013C00AE071FEE70FA226E
:10001E00750C01E4F50BE50E90000F93550C700472
:10002E00C2A18002D2A1D2A0C2A0E50C25E0F50C9F
:10003E00050BE50BB408DFC2B7D2B5C2A2D2A27FC0
:10004E00C812013C750C01E4F50BE50F90000F93FF
:10005E00550C7004C2A18002D2A1D2A0C2A0E50CA0
:10006E0025E0F50C050BE50BB408DFC2B5D2B7C21F
:08007E00A2D2A27FC802013CDE
:1000860075A087758920758D06758B06D2AFD2ABA4
:10009600D28ED2B0C2B0D2B1C2B130B2FDD2B38527
:1000A600900D859008E50875F006A485F009F50A17
:1000B600AE09FF7C037DE81200E78F0EAE09AF0A9A
:1000C6007C037DE81200E77E007F64CFCDCFCECCE7
:1000D600CE1200E78F0F907FFFE50DF012001E8015
:0100E600B168
:03001B000201439C
:03014300B2A6322F
:1000E700BC000BBE0029EF8DF084FFADF022E4CCFD
:1000F700F875F008EF2FFFEE33FEEC33FCEE9DECC6
:10010700984005FCEE9DFE0FD5F0E9E4CEFD22ED0B
:10011700F8F5F0EE8420D21CFEADF075F008EF2F55
:10012700FFED33FD4007985006D5F0F222C398FD46
:050137000FD5F0EA22E3
:00000001FF
