:10035A00207777772E6F757268632E636E00546903
:05036A006D653A200062
:0D03AF00C2A0D2A100D2A200C2A2AF802243
:10031A00C2A2A20092A0C2A100853A8000D2A20085
:06032A00C2A2000203AFB5
:0A03C800C200EF4408F53A02031AE0
:0A03D200C200EF4404F53A02031ADA
:10028000C2A2C200753A3812031AC200753A381277
:10029000031A7F041203C8C200753A0112031A7FC1
:0402A000020203D281
:1002E400AE07ED700AC200EE4480F53A12031ABD5F
:0F02F400010CC200EE24C04480F53A12031A2216
:100303001201C1FF6010D200F53A12031A740129D9
:07031300F9E43AFA80EA2246
:0F038000EF7F08A2E09297D296C296C313DFF4E4
:01038F00224B
:0F0390007F08C313A29792E7D296C296DFF4FFBD
:01039F00223B
:10033000AE05C295C296D295120380AF0612038015
:05034000D296C29522D7
:10034500C295C296D295EF4401FF12038012039025
:04035500D296C295E5
:010359002281
:0F03A0003000047D108002E4FD7F8E12033022B6
:1002A400AC05AB07C2001203A0AF03EC75F00A84DF
:1002B400C454F0FEEC75F00A84E5F04EFD02033000
:100003007F80120345EF5470C4540F75F00AA4FEA9
:10001300EF540F2E1202077F82120345EF5470C470
:10002300540F75F00AA4FEEF540F2E900001120234
:10003300197F84120345EF5470C4540F75F00AA45A
:10004300FEEF540F2E9000021202197F8612034511
:10005300EF5470C4540F75F00AA4FEEF540F2E90A2
:1000630000041202197F8A120345EF5470C4540F1F
:1000730075F00AA4FEEF540F2E9000031202197FAD
:1000830088120345EF5470C4540F75F00AA4FEEFB1
:10009300540F2E9000051202197F8C120345EF5462
:1000A30070C4540F75F00AA4FEEF540F2E9000068F
:0300B3000202192D
:1000B6009000061201DA75F00A84243090000712C7
:1000C60002199000061201DA75F00A84E5F0243070
:1000D600900008120219900009742D12021990005E
:1000E600051201DA75F00A84243090000A1202190A
:1000F6009000051201DA75F00A84E5F024309000CC
:100106000B12021990000C742D12021990000412A1
:1001160001DA75F00A84243090000D12021990005D
:10012600041201DA75F00A84E5F0243090000E120C
:09013600021990000FE402021905
:10013F009000021201DA75F00A8424309000101238
:10014F0002199000021201DA75F00A84E5F02430EA
:10015F00900011120219900012743A1202199000B5
:10016F00011201DA75F00A8424309000131202197B
:10017F009000011201DA75F00A84E5F02430900046
:10018F0014120219900015743A1202191201C1FFCC
:10019F0075F00A842430900016120219EF75F00AD8
:1001AF0084E5F0243090001712021990000FE4023A
:0201BF00021923
:10036F007F80120345EF30E707E4FD7F801202A480
:01037F00225B
:1002C400E4FDFCC3ED9FEC9E5015E4FBFA0BBB0070
:0F02D400010AEB64784A70F50DBD00010C80E45F
:0102E30022F8
:10023B0012028012036FE4FDFF1202E47BFF7A03CC
:10024B00795A1203030DE4FF1202E47A0379681260
:10025B0003037B007A00792112000312013F7D0119
:10026B007F061202E47A0079311203037F907E013C
:05027B001202C480DD49
:030000000203BC3C
:0C03BC00787FE4F6D8FD75813A02023B20
:1001C100BB010689828A83E0225002E722BBFE023C
:0901D100E32289828A83E493226F
:1001DA00BB010CE58229F582E5833AF583E02250DA
:1001EA0006E92582F8E622BBFE06E92582F8E22224
:0D01FA00E58229F582E5833AF583E493223E
:10020700BB010689828A83F0225002F722BBFE01D6
:02021700F322D0
:10021900F8BB010DE58229F582E5833AF583E8F01B
:10022900225006E92582C8F622BBFE05E92582C8C7
:02023900F222AF
:00000001FF
