:1001AE000A11000102030405060708090A1B0000D4
:0B01BE000000000000000809010C0315
:1001DD00AD071FED600BE4FEEEC3947D50F20E8073
:0101ED00F71A
:0101EE0022EE
:1001EF00758920758DFD758BFDE4F587D28E759819
:0201FF00D0220C
:10017F002090147F321201DD20900C3090FDE4F5B9
:10018F000C7510017509032091147F321201DD20C7
:0F019F00910C3091FD750C01751001750904224A
:10008F00E50C7078D29BD2A08509993099FDC29961
:10009F00C2A03098FD85990BC298E50B65096002E7
:1000AF008057C29BD2A08510993099FDC299C2A0EA
:1000BF003098FD85990EC298E50E65106002803963
:1000CF00E4F50FD2A0FFC29B74112FF8E6F5992526
:1000DF000FF50F3099FDC2990FBF0AEAC29B850F2A
:1000EF00993099FDC299C2A03098FD85990DC2989B
:0C00FF00E50DB4CC04750C0322E4F50CF4
:01010B0022D1
:10010C00E50C6401706CD29B8509993099FDC299FC
:10011C003098FD85990BC298E50B65096002804FFC
:10012C00C29B8510993099FDC2993098FD85990E26
:10013C00C298E50E651060028035E4F50FFFC29B96
:10014C00741B2FF8E6F599250FF50F3099FDC29920
:10015C000FBF0AEAC29B850F993099FDC29930985E
:10016C00FD85990DC298E50DB4CC04750C03227570
:02017C000C0174
:01017E00225E
:1001CA007FF41201DD1201EF12008F12010C1201ED
:0301DA007F80F52E
:03000000020003F8
:0C000300787FE4F6D8FD75812402004AE5
:10000F000201CAE493A3F8E493A34003F68001F23C
:10001F0008DFF48029E493A3F85407240CC8C333F2
:10002F00C4540F4420C8834004F456800146F6DFC1
:10003F00E4800B01020408102040809001AEE47EA2
:10004F00019360BCA3FF543F30E509541FFEE493B6
:10005F00A360010ECF54C025E060A840B8E493A37D
:10006F00FAE493A3F8E493A3C8C582C8CAC583CAA8
:10007F00F0A3C8C582C8CAC583CADFE9DEE780BE60
:0101C9000035
:00000001FF
