:10040D0020202020202020202020202020202020DF
:10041D00005653003A0020494700524E4700202A0B
:0F042D002A2A2A2A53544F502A2A2A2A2A2000E0
:0304C80001170118
:10034C0020B00375130130B021E513B4011CE4F5A2
:10035C0013E51770047F0180027F008F177BFF7AF3
:10036C0004790DE4F50CFD1203C220B103751401E0
:10037C0030B114E514B4010FE4F514E51870047FE2
:10038C000180027F008F1820B20375150130B20E68
:10039C00E515B40109E4F515E5176002051920B35C
:1003AC000375160130B30EE516B40109E4F516E534
:0503BC00176002051AA4
:0103C1002219
:1002150012043C12034CE517640160030202B07B33
:10022500FF7A04791EF50C7D081203C27BFF7A0460
:100235007921750C017D081203C2E51864017BFF65
:100245007A0479237030F50C7D021203C27BFF7AA4
:10025500047927E4F50C7D0C1203C2AF197E0075F5
:100265000C037B017D02120167AF1A7E00750C033A
:100275007B017D0C802FE4F50C7D0C1203C27BFF06
:100285007A047927E4F50C7D021203C2AF197E00CA
:10029500750C037B017D0C120167AF1A7E00750C8E
:1002A500037B017D021201670202187BFF7A047944
:0B02B5002BE4F50CFD1203C20202183E
:0504C300000000000034
:0604A100D2B47F0A7E00C8
:0B04A700EF1FAC0670011E4C70F62227
:10048E00C2B5D2B61204A1C2B4308706C2B4D2B479
:03049E0080F722C2
:1004B200A20092B5C2B68512801204A1C2B402048F
:0104C2008EAB
:07046A00E50B250DFFAD0CB1
:10047100AB07ED700AC200EB4480F5121204B2BD65
:0D048100010AC200EB44C0F5121204B222C1
:10043C00C2007512381204B27F2C7E011204A77F01
:10044C002C7E011204A7C20075120C1204B2C20059
:0E045C007512011204B2C2007512060204B23B
:0803C2008B088A09890A8D0BE2
:1003CA00E4F50DF50EAB08AA09A90A1200F9603284
:1003DA00E50D700AE50E700612046A750E01E50E47
:1003EA00B401E212046AD200AB08050AE50AAA09B6
:1003FA007002050914F91200F9F5121204B2050D7A
:02040A0080C3AD
:01040C0022CD
:080167008E088F098D0A8B0B35
:10016F00780D7C007D007BFF7A0479C37E007F05CC
:10017F001200D3AE08AF097C277D101201128F0D2C
:10018F00AE08AF097C277D10120112AA04AB057DC2
:10019F00E87C03AF03AE021201128F0E7DE87C03E1
:1001AF00AF03AE02120112AA04AB057D647C00AF4F
:1001BF0003AE021201128F0F7D647C00AF03AE02FB
:1001CF00120112AA04AB057D0A7C00AF03AE021226
:1001DF0001128F107D0A7C00AF03AE021201128D47
:1001EF0011AD0BAF0A120471C37405950CFDEDC36D
:1001FF0094055011D200740D2DF8E62430F512122B
:05020F0004B20D80E9BE
:0102140022C7
:030000000202C039
:0C02C000787FE4F6D8FD7581200203076A
:10000300E709F608DFFA8046E709F208DFFA803EDF
:1000130088828C83E709F0A3DFFA8032E309F608CC
:10002300DFFA8078E309F208DFFA807088828C8334
:10003300E309F0A3DFFA806489828A83E0A3F608E8
:10004300DFFA805889828A83E0A3F208DFFA804CC2
:1000530080D280FA80C680D4806980F28033801099
:1000630080A680EA809A80A880DA80E280CA803302
:1000730089828A83ECFAE493A3C8C582C8CCC5837A
:10008300CCF0A3C8C582C8CCC583CCDFE9DEE7804A
:100093000D89828A83E493A3F608DFF9ECFAA9F0C9
:1000A300EDFB2289828A83ECFAE0A3C8C582C8CC1F
:1000B300C583CCF0A3C8C582C8CCC583CCDFEADE38
:1000C300E880DB89828A83E493A3F208DFF980CC9A
:1000D30088F0EF60010E4E60C388F0ED2402B40493
:1000E3000050B9F582EB2402B4040050AF2323453A
:0600F3008223900053730C
:1000F900BB010689828A83E0225002E722BBFE0205
:09010900E32289828A83E4932237
:10011200BC000BBE0029EF8DF084FFADF022E4CCD1
:10012200F875F008EF2FFFEE33FEEC33FCEE9DEC9A
:10013200984005FCEE9DFE0FD5F0E9E4CEFD22EDE0
:10014200F8F5F0EE8420D21CFEADF075F008EF2F2A
:10015200FFED33FD4007985006D5F0F222C398FD1B
:050162000FD5F0EA22B8
:1002CC00020215E493A3F8E493A34003F68001F231
:1002DC0008DFF48029E493A3F85407240CC8C33333
:1002EC00C4540F4420C8834004F456800146F6DF02
:1002FC00E4800B01020408102040809004C8E47EC6
:10030C00019360BCA3FF543F30E509541FFEE493F6
:10031C00A360010ECF54C025E060A840B8E493A3BD
:10032C00FAE493A3F8E493A3C8C582C8CAC583CAE8
:10033C00F0A3C8C582C8CAC583CADFE9DEE780BEA0
:0104CB000030
:00000001FF
