:100000000205A80000000000000000020A52E53DC1
:10001000640A60030201C7F53D053AE53A640660EB
:10002000030201C7F53A0549E549640A6003020184
:10003000C7F5490544E544640660030201C7F54479
:100040001552E55260100550E550640A6003020144
:10005000C7F550054A22E55260030201C7755218E0
:10006000F550F54AE53770047F0180027F00E532E4
:1000700070047E0180027E00EE5FFFE54070047E2A
:100080000180027E00EE5FFFE53E70047E0180028B
:100090007E00EE5F70281532E532B40A21E4F532B5
:1000A0001537E537B40A17E4F5371540E540B40ACB
:1000B0000DE4F540153EE53EB40A03E4F53EE539AE
:1000C00044FEFFF4707A1542E542600D0546E546B0
:1000D000640A60030201C7807CE54260030201C735
:1000E00075421F754601F5531541E541600E05390E
:1000F000E539640A60030201C702018EE54160032D
:100100000201C775410C753901F547053FE53F64AC
:100110000A60030201C7F53F054BE54B640A600323
:100120000201C7F54B0523E523640A60030201C7FA
:0F013000F5230522E522640A60030201C7F522C8
:10013F0022EFF470030201C71545E545600D054632
:10014F00E546640A7072F546055322E5457069E588
:10015F0039B40214E53BB41C0575451C800DE53B15
:10016F00B41D0E75451D800375421E754601E4F5DD
:10017F00531541E541600D0539E539640A7039F5CC
:10018F0039054722E541703075410C753901F54746
:10019F00053FE53FB40A21E4F53F054BE54BB40AB3
:1001AF0017E4F54B0523E523B40A0DE4F5230522E7
:1001BF00E522B40A03E4F52222853050852F4A90B8
:1001CF007FFF74DFF0E53D25E0246DF582E4340A0E
:1001DF00F58374019390BFFF120A03907FFF74EFB2
:1001EF00F0E53A25E0246DF582E4340AF5837401D5
:1001FF009390BFFF120A03907FFF74F7F0E5492534
:10020F00E0246DF582E4340AF58374019344809001
:10021F00BFFF120A03907FFF74FBF0E54425E02433
:10022F006DF582E4340AF58374019390BFFF120ACF
:10023F0003907FFF74FDF0E55025E0246DF582E417
:10024F00340AF583740193448090BFFF120A039020
:10025F007FFF74FEF0E54A25E0246DF582E4340A51
:10026F00F58374019390BFFF120A0390DFFF747F31
:10027F00F0E5461209F290DFFF74BFF0E553120963
:10028F00F290DFFF74DFF0E53925E0246DF582E4AD
:10029F00340AF5837401934480120A0090DFFF74CF
:1002AF00EFF0E5471209F290DFFF74F7F0E53F2515
:1002BF00E0246DF582E4340AF583740193448012CF
:1002CF000A0090DFFF74FBF0E54B1209F290DFFF9D
:1002DF0074FDF0E5231209F290DFFF74FEF0E522C2
:1002EF001209F290F7FF74F7F0E53225E0246DF56F
:1002FF0082E4340AF58374019390FBFF120A039092
:10030F00F7FF74FBF0E53725E0246DF582E4340A3E
:10031F00F58374019390FBFF120A0390F7FF74FDAE
:10032F00F0E54025E0246DF582E4340AF58374018D
:10033F009390FBFF120A0390F7FF74FEF0E53E2542
:10034F00E0246DF582E4340AF58374019390FBFF8A
:10035F00F07F037E00020A08300539E55264186009
:10036F002005521530E530F46003020500753009A1
:10037F00152FE52FF46003020500752F027530036A
:10038F0022E55264186003020500755201753003AF
:07039F00752F022230001B44
:1003A600152DE52DF46003020500752D09152AE5C6
:1003B6002AF46003020500752A0522300435152843
:1003C600E528F46003020500752809153CE53CF4B0
:1003D6006003020500753C091551E551F4600302FE
:1003E60005007551091529E529F460030205007514
:1003F60029092230032BE541640C6012054115548E
:10040600E554F46003020500755409153822E541E8
:10041600640C6003020500754101755402753801CC
:10042600222002030204D5E55444FEFFF47027E5BA
:1004360042641F600E0542152EE52EF46003020588
:10044600008032E542641F600302050075420175B3
:100456002E0175430322EFF47003020500E5546490
:1004660002703BE545653B60120545152EE52EF409
:100476006003020500752E09154322E545653B70AC
:1004860079E53BB41C08754501752E08800CE53BE3
:10049600641D7066754501752E0975430222E55483
:1004A60064026056E536641E6013053685364515CA
:1004B6002EE52EF47044752E091543800EE536643C
:1004C6001E7037753601F52E754303853645223085
:1004D6000628152CE52CB4FF21752C091521E521DC
:0304E600B4FF1749
:1004E9007521091524E524B4FF0D752409152BE59B
:1004F9002BB4FF03752B09222006030205A78532B9
:100509002C853721854024853E2B300659E4F50892
:1005190075320A75370A75400A753E0A852E468571
:1005290043531201CE1209892006037508330508C1
:10053900E508C3941240D93006D0E4F508E508C3AC
:10054900941250C6852C32852137852440852B3E4F
:10055900852E468543531201CE120989200603755B
:100569000833050880D7300135C201852D49852A10
:1005790044853050852F4A4A85283F853C4B855113
:1005890023852922855439853847852E4685435345
:10059900852C32852137852440852B3ED28C2278C3
:1005A9007FE4F6D8FD7581540205EE020A26E4932C
:1005B900A3F8E493A34003F68001F208DFF480284E
:1005C900E493A3F85407240CC8C333C4540F44203C
:1005D900C8834004F456800146F6DFE4800A040823
:1005E9001020418092900798E47E019360BDA3FF9B
:1005F900543F30E509541FFEE493A360010ECF5424
:0F060900C025E060A940B9E493A3FAE493A3F8F5
:10061800E493A3C8C582C8CAC583CAF0A3C8C58263
:10062800C8CAC583CADFE9DEE780BE852835853CB0
:1006380027855131852934752500852826E53CC450
:1006480054F0F53C533CF0E53C2526F526E43525E9
:10065800F525E526752600F525E5512526F526E438
:100668003525F525E529C454F0F5295329F0E52960
:100678002526F526E43525F525F54C754D00E54C80
:10068800F54D754C00754E0085264FE54F754F00AA
:10069800F54EE54D254FF526E54C354EF5258535C6
:1006A8002885273C853151853429220533E533B423
:1006B8000106D205C2008009E533B40208C205D29A
:1006C80000C204800BE533B4030AC205C200D20499
:1006D800C203800DE533B4040CC205C200C204D2C3
:1006E80003C202800FE533B4050FC205C200C2047D
:1006F800C203D202C206C20122E533B4060FC20504
:10070800C200C204C203C202D206C20122E533B447
:100718000711E4F533C205C200C204C203C202C213
:1007280006D20122300468852229852351854B3C55
:10073800853F28300459E4F50875220A75230A759F
:080748004B0A753F0A852D499B
:10075000852A441201CE1209892004037508330545
:1007600008E508C3941240D93004D0E4F508E50840
:10077000C3941250C6852922855123853C4B852878
:100780003F852D49852A441201CE12098920040390
:10079000750833050880D722014800015218013D31
:1007A00000013A00014900014400015000014A00E3
:1007B000012202012300014B00013F070147000114
:1007C000390601530201460601320001370101409A
:1007D00004013E0001421F01451E01361E01410C6D
:1007E000013300C105C100C104C103C102C106C17A
:1007F0000100BC000BBE0029EF8DF084FFADF0229C
:10080000E4CCF875F008EF2FFFEE33FEEC33FCEE8E
:100810009DEC984005FCEE9DFE0FD5F0E9E4CEFD81
:1008200022EDF8F5F0EE8420D21CFEADF075F00854
:10083000EF2FFFED33FD4007985006D5F0F222C3AD
:1008400098FD0FD5F0EA2230004A85492D85442ACB
:10085000300041E4F50875490A75440A1201C812CE
:1008600009892000037508330508E508C394124080
:10087000E53000DCE4F508E508C3941250D2852D7C
:1008800049852A441201C8120989200003750833DA
:10089000050880E322208C081209B78F4585453B67
:1008A00030033E853954854738300335E4F5087503
:1008B000390A75470A12097A2003037508330508B7
:1008C000E508C3941240E83003DFE4F508E508C307
:1008D000941250D51209742003037508330508805B
:1008E000EC22300546C28C855030854A2F30053BBE
:1008F000E4F50875500A754A0A1201CE12098920DA
:1009000005037508330508E508C3941240E5300572
:10091000DCE4F508E508C3941250D21201C81209AC
:1009200089200503750833050880E92230024485D3
:10093000462E85534330023BE4F50875460A75534D
:100940000A1209742002037508330508E508C394E8
:100950001240E83002DFE4F508E508C3941250D5F0
:10096000852E46854353120974200203750833050A
:100970000880E62285543985384785292285512308
:10098000853C4B85283F1201CE7590FFE590F460C1
:10099000251201CE1201CE1201CEE590F46017AF00
:1009A00090EF2405600D24FE60061470090206B362
:1009B00002000012036722120633E5265403700E6C
:1009C000AE25AF26FC7D641207F2ED4C701EAE25FD
:1009D000AF267C007D641207F2ED4C7012AE25AF9D
:1009E000267C017D901207F2ED4C70037F1D227F63
:1009F0001C2225E0246DF582E4340AF5837401930A
:100A000090EFFFF07F037E00D3EF9400EE94004060
:010A100014D1
:100A11007D327C00ED1D70011CED4C70F7EF1F70F5
:100A2100E61E80E322758901758C3C758AB0D2AFD0
:100A3100D2A9D28C1209891201CE1208E2120847FA
:100A410012072C12089512092C12050112000E80B2
:100A5100E3C0E0C0D0758C3C758AB00548E548B468
:100A61001405754800053DD0D0D0E032003F0006A6
:100A7100005B004F0066006D007D0007007F006F86
:020A8100000073
:00000001FF
